{
    "_format": "hh-sol-artifact-1",
    "contractName": "Funds",
    "sourceName": "contracts/Funds.sol",
    "abi": [
        {
            "inputs": [],
            "stateMutability": "nonpayable",
            "type": "constructor"
        },
        {
            "inputs": [
                {
                    "internalType": "uint256",
                    "name": "_amount",
                    "type": "uint256"
                }
            ],
            "name": "AddFunds",
            "outputs": [],
            "stateMutability": "nonpayable",
            "type": "function"
        },
        {
            "inputs": [
                {
                    "internalType": "uint256",
                    "name": "_id",
                    "type": "uint256"
                }
            ],
            "name": "ApproveProjects",
            "outputs": [],
            "stateMutability": "nonpayable",
            "type": "function"
        },
        {
            "inputs": [],
            "name": "CentralLogin",
            "outputs": [
                {
                    "internalType": "bool",
                    "name": "",
                    "type": "bool"
                }
            ],
            "stateMutability": "view",
            "type": "function"
        },
        {
            "inputs": [
                {
                    "internalType": "string",
                    "name": "_name",
                    "type": "string"
                }
            ],
            "name": "DepartmentCheck",
            "outputs": [
                {
                    "internalType": "bool",
                    "name": "",
                    "type": "bool"
                }
            ],
            "stateMutability": "view",
            "type": "function"
        },
        {
            "inputs": [],
            "name": "DepartmentLogin",
            "outputs": [
                {
                    "internalType": "bool",
                    "name": "",
                    "type": "bool"
                }
            ],
            "stateMutability": "view",
            "type": "function"
        },
        {
            "inputs": [
                {
                    "internalType": "string",
                    "name": "_under_name",
                    "type": "string"
                },
                {
                    "internalType": "address",
                    "name": "_add",
                    "type": "address"
                },
                {
                    "internalType": "string",
                    "name": "_name",
                    "type": "string"
                }
            ],
            "name": "DepartmentRegister",
            "outputs": [],
            "stateMutability": "nonpayable",
            "type": "function"
        },
        {
            "inputs": [
                {
                    "internalType": "string",
                    "name": "_name",
                    "type": "string"
                }
            ],
            "name": "GovernmentCheck",
            "outputs": [
                {
                    "internalType": "bool",
                    "name": "",
                    "type": "bool"
                }
            ],
            "stateMutability": "view",
            "type": "function"
        },
        {
            "inputs": [],
            "name": "GovernmentLogin",
            "outputs": [
                {
                    "internalType": "bool",
                    "name": "",
                    "type": "bool"
                }
            ],
            "stateMutability": "view",
            "type": "function"
        },
        {
            "inputs": [
                {
                    "internalType": "address",
                    "name": "_add",
                    "type": "address"
                },
                {
                    "internalType": "string",
                    "name": "_name",
                    "type": "string"
                }
            ],
            "name": "GovernmentRegister",
            "outputs": [],
            "stateMutability": "nonpayable",
            "type": "function"
        },
        {
            "inputs": [
                {
                    "internalType": "string",
                    "name": "_project_name",
                    "type": "string"
                },
                {
                    "internalType": "string",
                    "name": "_name",
                    "type": "string"
                },
                {
                    "internalType": "string",
                    "name": "_dept_name",
                    "type": "string"
                },
                {
                    "internalType": "uint256",
                    "name": "_amount",
                    "type": "uint256"
                }
            ],
            "name": "OpenContract",
            "outputs": [],
            "stateMutability": "nonpayable",
            "type": "function"
        },
        {
            "inputs": [
                {
                    "internalType": "uint256",
                    "name": "_id",
                    "type": "uint256"
                }
            ],
            "name": "SendInstallment1",
            "outputs": [],
            "stateMutability": "nonpayable",
            "type": "function"
        },
        {
            "inputs": [
                {
                    "internalType": "uint256",
                    "name": "_id",
                    "type": "uint256"
                }
            ],
            "name": "SendInstallment2",
            "outputs": [],
            "stateMutability": "nonpayable",
            "type": "function"
        },
        {
            "inputs": [
                {
                    "internalType": "uint256",
                    "name": "_id",
                    "type": "uint256"
                },
                {
                    "internalType": "uint256",
                    "name": "_amount",
                    "type": "uint256"
                },
                {
                    "internalType": "string",
                    "name": "_vendor_name",
                    "type": "string"
                },
                {
                    "internalType": "string",
                    "name": "_contract_name",
                    "type": "string"
                }
            ],
            "name": "SendToVendor",
            "outputs": [],
            "stateMutability": "nonpayable",
            "type": "function"
        },
        {
            "inputs": [
                {
                    "internalType": "string",
                    "name": "_name",
                    "type": "string"
                },
                {
                    "internalType": "uint256",
                    "name": "_amount",
                    "type": "uint256"
                },
                {
                    "internalType": "uint256",
                    "name": "_installments",
                    "type": "uint256"
                },
                {
                    "internalType": "string",
                    "name": "_state_name",
                    "type": "string"
                },
                {
                    "internalType": "string",
                    "name": "_dept_name",
                    "type": "string"
                }
            ],
            "name": "StartProject",
            "outputs": [],
            "stateMutability": "nonpayable",
            "type": "function"
        },
        {
            "inputs": [
                {
                    "internalType": "uint256",
                    "name": "_id",
                    "type": "uint256"
                }
            ],
            "name": "TrackProject",
            "outputs": [
                {
                    "components": [
                        {
                            "internalType": "uint256",
                            "name": "id",
                            "type": "uint256"
                        },
                        {
                            "internalType": "string",
                            "name": "name",
                            "type": "string"
                        },
                        {
                            "internalType": "uint256",
                            "name": "amount",
                            "type": "uint256"
                        },
                        {
                            "internalType": "uint256",
                            "name": "installments",
                            "type": "uint256"
                        },
                        {
                            "internalType": "uint256",
                            "name": "given",
                            "type": "uint256"
                        },
                        {
                            "internalType": "uint256",
                            "name": "status",
                            "type": "uint256"
                        },
                        {
                            "internalType": "uint256",
                            "name": "curr_inst",
                            "type": "uint256"
                        },
                        {
                            "internalType": "address",
                            "name": "state_add",
                            "type": "address"
                        },
                        {
                            "internalType": "string",
                            "name": "state_name",
                            "type": "string"
                        },
                        {
                            "internalType": "address",
                            "name": "department_add",
                            "type": "address"
                        },
                        {
                            "internalType": "string",
                            "name": "department_name",
                            "type": "string"
                        },
                        {
                            "components": [
                                {
                                    "internalType": "uint256",
                                    "name": "project_id",
                                    "type": "uint256"
                                },
                                {
                                    "internalType": "uint256",
                                    "name": "installment_no",
                                    "type": "uint256"
                                },
                                {
                                    "internalType": "uint256",
                                    "name": "amount",
                                    "type": "uint256"
                                },
                                {
                                    "internalType": "uint256",
                                    "name": "time",
                                    "type": "uint256"
                                },
                                {
                                    "internalType": "address",
                                    "name": "from",
                                    "type": "address"
                                },
                                {
                                    "internalType": "string",
                                    "name": "from_name",
                                    "type": "string"
                                },
                                {
                                    "internalType": "address",
                                    "name": "to",
                                    "type": "address"
                                },
                                {
                                    "internalType": "string",
                                    "name": "to_name",
                                    "type": "string"
                                }
                            ],
                            "internalType": "struct Funds.Installment[]",
                            "name": "inst",
                            "type": "tuple[]"
                        },
                        {
                            "components": [
                                {
                                    "internalType": "uint256",
                                    "name": "project_id",
                                    "type": "uint256"
                                },
                                {
                                    "internalType": "string",
                                    "name": "contract_name",
                                    "type": "string"
                                },
                                {
                                    "internalType": "address",
                                    "name": "vendor_add",
                                    "type": "address"
                                },
                                {
                                    "internalType": "string",
                                    "name": "vendor_name",
                                    "type": "string"
                                },
                                {
                                    "internalType": "uint256",
                                    "name": "amount",
                                    "type": "uint256"
                                },
                                {
                                    "internalType": "uint256",
                                    "name": "time",
                                    "type": "uint256"
                                },
                                {
                                    "internalType": "address",
                                    "name": "from",
                                    "type": "address"
                                },
                                {
                                    "internalType": "string",
                                    "name": "from_name",
                                    "type": "string"
                                }
                            ],
                            "internalType": "struct Funds.VendorPaid[]",
                            "name": "vendor",
                            "type": "tuple[]"
                        }
                    ],
                    "internalType": "struct Funds.Project",
                    "name": "",
                    "type": "tuple"
                }
            ],
            "stateMutability": "view",
            "type": "function"
        },
        {
            "inputs": [
                {
                    "internalType": "string",
                    "name": "_name",
                    "type": "string"
                }
            ],
            "name": "VendorCheck",
            "outputs": [
                {
                    "internalType": "bool",
                    "name": "",
                    "type": "bool"
                }
            ],
            "stateMutability": "view",
            "type": "function"
        },
        {
            "inputs": [],
            "name": "VendorLogin",
            "outputs": [
                {
                    "internalType": "string",
                    "name": "",
                    "type": "string"
                }
            ],
            "stateMutability": "view",
            "type": "function"
        },
        {
            "inputs": [
                {
                    "internalType": "string",
                    "name": "_under_name",
                    "type": "string"
                },
                {
                    "internalType": "address",
                    "name": "_add",
                    "type": "address"
                },
                {
                    "internalType": "string",
                    "name": "_name",
                    "type": "string"
                }
            ],
            "name": "VendorRegister",
            "outputs": [],
            "stateMutability": "nonpayable",
            "type": "function"
        },
        {
            "inputs": [],
            "name": "balance",
            "outputs": [
                {
                    "internalType": "uint256",
                    "name": "",
                    "type": "uint256"
                }
            ],
            "stateMutability": "view",
            "type": "function"
        },
        {
            "inputs": [],
            "name": "central",
            "outputs": [
                {
                    "internalType": "address",
                    "name": "",
                    "type": "address"
                }
            ],
            "stateMutability": "view",
            "type": "function"
        },
        {
            "inputs": [],
            "name": "getAllProjects",
            "outputs": [
                {
                    "components": [
                        {
                            "internalType": "uint256",
                            "name": "id",
                            "type": "uint256"
                        },
                        {
                            "internalType": "string",
                            "name": "name",
                            "type": "string"
                        },
                        {
                            "internalType": "uint256",
                            "name": "amount",
                            "type": "uint256"
                        },
                        {
                            "internalType": "uint256",
                            "name": "installments",
                            "type": "uint256"
                        },
                        {
                            "internalType": "uint256",
                            "name": "given",
                            "type": "uint256"
                        },
                        {
                            "internalType": "uint256",
                            "name": "status",
                            "type": "uint256"
                        },
                        {
                            "internalType": "uint256",
                            "name": "curr_inst",
                            "type": "uint256"
                        },
                        {
                            "internalType": "address",
                            "name": "state_add",
                            "type": "address"
                        },
                        {
                            "internalType": "string",
                            "name": "state_name",
                            "type": "string"
                        },
                        {
                            "internalType": "address",
                            "name": "department_add",
                            "type": "address"
                        },
                        {
                            "internalType": "string",
                            "name": "department_name",
                            "type": "string"
                        },
                        {
                            "components": [
                                {
                                    "internalType": "uint256",
                                    "name": "project_id",
                                    "type": "uint256"
                                },
                                {
                                    "internalType": "uint256",
                                    "name": "installment_no",
                                    "type": "uint256"
                                },
                                {
                                    "internalType": "uint256",
                                    "name": "amount",
                                    "type": "uint256"
                                },
                                {
                                    "internalType": "uint256",
                                    "name": "time",
                                    "type": "uint256"
                                },
                                {
                                    "internalType": "address",
                                    "name": "from",
                                    "type": "address"
                                },
                                {
                                    "internalType": "string",
                                    "name": "from_name",
                                    "type": "string"
                                },
                                {
                                    "internalType": "address",
                                    "name": "to",
                                    "type": "address"
                                },
                                {
                                    "internalType": "string",
                                    "name": "to_name",
                                    "type": "string"
                                }
                            ],
                            "internalType": "struct Funds.Installment[]",
                            "name": "inst",
                            "type": "tuple[]"
                        },
                        {
                            "components": [
                                {
                                    "internalType": "uint256",
                                    "name": "project_id",
                                    "type": "uint256"
                                },
                                {
                                    "internalType": "string",
                                    "name": "contract_name",
                                    "type": "string"
                                },
                                {
                                    "internalType": "address",
                                    "name": "vendor_add",
                                    "type": "address"
                                },
                                {
                                    "internalType": "string",
                                    "name": "vendor_name",
                                    "type": "string"
                                },
                                {
                                    "internalType": "uint256",
                                    "name": "amount",
                                    "type": "uint256"
                                },
                                {
                                    "internalType": "uint256",
                                    "name": "time",
                                    "type": "uint256"
                                },
                                {
                                    "internalType": "address",
                                    "name": "from",
                                    "type": "address"
                                },
                                {
                                    "internalType": "string",
                                    "name": "from_name",
                                    "type": "string"
                                }
                            ],
                            "internalType": "struct Funds.VendorPaid[]",
                            "name": "vendor",
                            "type": "tuple[]"
                        }
                    ],
                    "internalType": "struct Funds.Project[]",
                    "name": "",
                    "type": "tuple[]"
                }
            ],
            "stateMutability": "view",
            "type": "function"
        },
        {
            "inputs": [],
            "name": "getContracts",
            "outputs": [
                {
                    "components": [
                        {
                            "internalType": "uint256",
                            "name": "contract_id",
                            "type": "uint256"
                        },
                        {
                            "internalType": "uint256",
                            "name": "project_id",
                            "type": "uint256"
                        },
                        {
                            "internalType": "string",
                            "name": "name",
                            "type": "string"
                        },
                        {
                            "internalType": "address",
                            "name": "dept_add",
                            "type": "address"
                        },
                        {
                            "internalType": "string",
                            "name": "dept_name",
                            "type": "string"
                        },
                        {
                            "internalType": "uint256",
                            "name": "status",
                            "type": "uint256"
                        },
                        {
                            "internalType": "uint256",
                            "name": "amount",
                            "type": "uint256"
                        }
                    ],
                    "internalType": "struct Funds.Contract[]",
                    "name": "",
                    "type": "tuple[]"
                }
            ],
            "stateMutability": "view",
            "type": "function"
        },
        {
            "inputs": [],
            "name": "getProjectCount",
            "outputs": [
                {
                    "internalType": "uint256",
                    "name": "",
                    "type": "uint256"
                }
            ],
            "stateMutability": "view",
            "type": "function"
        },
        {
            "inputs": [],
            "name": "getStateProjects",
            "outputs": [
                {
                    "components": [
                        {
                            "internalType": "uint256",
                            "name": "id",
                            "type": "uint256"
                        },
                        {
                            "internalType": "string",
                            "name": "name",
                            "type": "string"
                        },
                        {
                            "internalType": "uint256",
                            "name": "amount",
                            "type": "uint256"
                        },
                        {
                            "internalType": "uint256",
                            "name": "installments",
                            "type": "uint256"
                        },
                        {
                            "internalType": "uint256",
                            "name": "given",
                            "type": "uint256"
                        },
                        {
                            "internalType": "uint256",
                            "name": "status",
                            "type": "uint256"
                        },
                        {
                            "internalType": "uint256",
                            "name": "curr_inst",
                            "type": "uint256"
                        },
                        {
                            "internalType": "address",
                            "name": "state_add",
                            "type": "address"
                        },
                        {
                            "internalType": "string",
                            "name": "state_name",
                            "type": "string"
                        },
                        {
                            "internalType": "address",
                            "name": "department_add",
                            "type": "address"
                        },
                        {
                            "internalType": "string",
                            "name": "department_name",
                            "type": "string"
                        },
                        {
                            "components": [
                                {
                                    "internalType": "uint256",
                                    "name": "project_id",
                                    "type": "uint256"
                                },
                                {
                                    "internalType": "uint256",
                                    "name": "installment_no",
                                    "type": "uint256"
                                },
                                {
                                    "internalType": "uint256",
                                    "name": "amount",
                                    "type": "uint256"
                                },
                                {
                                    "internalType": "uint256",
                                    "name": "time",
                                    "type": "uint256"
                                },
                                {
                                    "internalType": "address",
                                    "name": "from",
                                    "type": "address"
                                },
                                {
                                    "internalType": "string",
                                    "name": "from_name",
                                    "type": "string"
                                },
                                {
                                    "internalType": "address",
                                    "name": "to",
                                    "type": "address"
                                },
                                {
                                    "internalType": "string",
                                    "name": "to_name",
                                    "type": "string"
                                }
                            ],
                            "internalType": "struct Funds.Installment[]",
                            "name": "inst",
                            "type": "tuple[]"
                        },
                        {
                            "components": [
                                {
                                    "internalType": "uint256",
                                    "name": "project_id",
                                    "type": "uint256"
                                },
                                {
                                    "internalType": "string",
                                    "name": "contract_name",
                                    "type": "string"
                                },
                                {
                                    "internalType": "address",
                                    "name": "vendor_add",
                                    "type": "address"
                                },
                                {
                                    "internalType": "string",
                                    "name": "vendor_name",
                                    "type": "string"
                                },
                                {
                                    "internalType": "uint256",
                                    "name": "amount",
                                    "type": "uint256"
                                },
                                {
                                    "internalType": "uint256",
                                    "name": "time",
                                    "type": "uint256"
                                },
                                {
                                    "internalType": "address",
                                    "name": "from",
                                    "type": "address"
                                },
                                {
                                    "internalType": "string",
                                    "name": "from_name",
                                    "type": "string"
                                }
                            ],
                            "internalType": "struct Funds.VendorPaid[]",
                            "name": "vendor",
                            "type": "tuple[]"
                        }
                    ],
                    "internalType": "struct Funds.Project[]",
                    "name": "",
                    "type": "tuple[]"
                }
            ],
            "stateMutability": "view",
            "type": "function"
        },
        {
            "inputs": [
                {
                    "internalType": "uint256",
                    "name": "",
                    "type": "uint256"
                }
            ],
            "name": "projects",
            "outputs": [
                {
                    "internalType": "uint256",
                    "name": "id",
                    "type": "uint256"
                },
                {
                    "internalType": "string",
                    "name": "name",
                    "type": "string"
                },
                {
                    "internalType": "uint256",
                    "name": "amount",
                    "type": "uint256"
                },
                {
                    "internalType": "uint256",
                    "name": "installments",
                    "type": "uint256"
                },
                {
                    "internalType": "uint256",
                    "name": "given",
                    "type": "uint256"
                },
                {
                    "internalType": "uint256",
                    "name": "status",
                    "type": "uint256"
                },
                {
                    "internalType": "uint256",
                    "name": "curr_inst",
                    "type": "uint256"
                },
                {
                    "internalType": "address",
                    "name": "state_add",
                    "type": "address"
                },
                {
                    "internalType": "string",
                    "name": "state_name",
                    "type": "string"
                },
                {
                    "internalType": "address",
                    "name": "department_add",
                    "type": "address"
                },
                {
                    "internalType": "string",
                    "name": "department_name",
                    "type": "string"
                }
            ],
            "stateMutability": "view",
            "type": "function"
        }
    ],
    "bytecode": "0x608060405234801561001057600080fd5b50336000806101000a81548173ffffffffffffffffffffffffffffffffffffffff021916908373ffffffffffffffffffffffffffffffffffffffff160217905550600060018190555060006002819055506000600381905550615fea80620000796000396000f3fe608060405234801561001057600080fd5b50600436106101735760003560e01c806385c1ca99116100de578063b7826af811610097578063cfe0b20211610071578063cfe0b20214610430578063d8fbd7c41461044c578063e2c358e61461047c578063f7a7b7e21461049a57610173565b8063b7826af8146103d8578063c3a2a93a146103f6578063ce032f561461041457610173565b806385c1ca991461031657806397a7d098146103345780639c5d45b7146103505780639dc0a63914610380578063b2048cd11461039c578063b69ef8a8146103ba57610173565b8063393f015011610130578063393f0150146102545780633bcff3b01461027257806347ed67781461029057806362cb312b146102ac578063789d531e146102dc57806380d03829146102f857610173565b80630a6a6cc314610178578063107046bd14610196578063135bd60d146101d0578063229cb2a9146101ec578063357b9deb1461021c57806335a629f314610238575b600080fd5b6101806104b6565b60405161018d9190615a22565b60405180910390f35b6101b060048036038101906101ab91906150ab565b61069a565b6040516101c79b9a99989796959493929190615a81565b60405180910390f35b6101ea60048036038101906101e59190614f41565b6108cc565b005b61020660048036038101906102019190614e81565b610ab9565b6040516102139190615a07565b60405180910390f35b61023660048036038101906102319190614fec565b610c41565b005b610252600480360381019061024d91906150ab565b6110de565b005b61025c6116ab565b60405161026991906159e5565b60405180910390f35b61027a61213e565b6040516102879190615a66565b60405180910390f35b6102aa60048036038101906102a591906150ab565b612148565b005b6102c660048036038101906102c19190614e81565b612644565b6040516102d39190615a07565b60405180910390f35b6102f660048036038101906102f191906150d4565b6127cc565b005b610300612d9c565b60405161030d91906159e5565b60405180910390f35b61031e61367f565b60405161032b9190615a07565b60405180910390f35b61034e60048036038101906103499190614ec2565b61375c565b005b61036a60048036038101906103659190614e81565b613914565b6040516103779190615a07565b60405180910390f35b61039a60048036038101906103959190614e2d565b613a9c565b005b6103a4613bae565b6040516103b19190615a07565b60405180910390f35b6103c2613c8b565b6040516103cf9190615a66565b60405180910390f35b6103e0613c91565b6040516103ed91906159a8565b60405180910390f35b6103fe613cb5565b60405161040b91906159c3565b60405180910390f35b61042e600480360381019061042991906150ab565b61411f565b005b61044a600480360381019061044591906150ab565b614136565b005b610466600480360381019061046191906150ab565b614171565b6040516104739190615a44565b60405180910390f35b610484614975565b6040516104919190615a07565b60405180910390f35b6104b460048036038101906104af9190614ec2565b6149dd565b005b60606000600680549050905060005b8181101561065c573373ffffffffffffffffffffffffffffffffffffffff166006828154811061051e577f4e487b7100000000000000000000000000000000000000000000000000000000600052603260045260246000fd5b906000526020600020906004020160020160009054906101000a900473ffffffffffffffffffffffffffffffffffffffff1673ffffffffffffffffffffffffffffffffffffffff16141561064957600681815481106105a6577f4e487b7100000000000000000000000000000000000000000000000000000000600052603260045260246000fd5b906000526020600020906004020160030180546105c290615e0d565b80601f01602080910402602001604051908101604052809291908181526020018280546105ee90615e0d565b801561063b5780601f106106105761010080835404028352916020019161063b565b820191906000526020600020905b81548152906001019060200180831161061e57829003601f168201915b505050505092505050610697565b808061065490615e70565b9150506104c5565b506040518060400160405280600581526020017f656d7074790000000000000000000000000000000000000000000000000000008152509150505b90565b60086020528060005260406000206000915090508060000154908060010180546106c390615e0d565b80601f01602080910402602001604051908101604052809291908181526020018280546106ef90615e0d565b801561073c5780601f106107115761010080835404028352916020019161073c565b820191906000526020600020905b81548152906001019060200180831161071f57829003601f168201915b5050505050908060020154908060030154908060040154908060050154908060060154908060070160009054906101000a900473ffffffffffffffffffffffffffffffffffffffff169080600801805461079590615e0d565b80601f01602080910402602001604051908101604052809291908181526020018280546107c190615e0d565b801561080e5780601f106107e35761010080835404028352916020019161080e565b820191906000526020600020905b8154815290600101906020018083116107f157829003601f168201915b5050505050908060090160009054906101000a900473ffffffffffffffffffffffffffffffffffffffff169080600a01805461084990615e0d565b80601f016020809104026020016040519081016040528092919081815260200182805461087590615e0d565b80156108c25780601f10610897576101008083540402835291602001916108c2565b820191906000526020600020905b8154815290600101906020018083116108a557829003601f168201915b505050505090508b565b60006002549050600080600090505b8281101561097957866040516020016108f4919061597a565b60405160208183030381529060405280519060200120600860008381526020019081526020016000206001016040516020016109309190615991565b60405160208183030381529060405280519060200120141561096657600860008281526020019081526020016000206000015491505b808061097190615e70565b9150506108db565b5060076040518060e0016040528060035481526020018381526020018781526020013373ffffffffffffffffffffffffffffffffffffffff1681526020018681526020016000815260200185815250908060018154018082558091505060019003906000526020600020906007020160009091909190915060008201518160000155602082015181600101556040820151816002019080519060200190610a21929190614b24565b5060608201518160030160006101000a81548173ffffffffffffffffffffffffffffffffffffffff021916908373ffffffffffffffffffffffffffffffffffffffff1602179055506080820151816004019080519060200190610a85929190614b24565b5060a0820151816005015560c0820151816006015550506001600354610aab9190615cc8565b600381905550505050505050565b600080600680549050905060005b81811015610c355783604051602001610ae0919061597a565b6040516020818303038152906040528051906020012060068281548110610b30577f4e487b7100000000000000000000000000000000000000000000000000000000600052603260045260246000fd5b9060005260206000209060040201600301604051602001610b519190615991565b604051602081830303815290604052805190602001201415610b7857600092505050610c3c565b60068181548110610bb2577f4e487b7100000000000000000000000000000000000000000000000000000000600052603260045260246000fd5b906000526020600020906004020160020160009054906101000a900473ffffffffffffffffffffffffffffffffffffffff1673ffffffffffffffffffffffffffffffffffffffff163373ffffffffffffffffffffffffffffffffffffffff161415610c2257600092505050610c3c565b8080610c2d90615e70565b915050610ac7565b5060019150505b919050565b600080600060048054905090506000600580549050905060005b82811015610df75786604051602001610c74919061597a565b6040516020818303038152906040528051906020012060048281548110610cc4577f4e487b7100000000000000000000000000000000000000000000000000000000600052603260045260246000fd5b9060005260206000209060040201600101604051602001610ce59190615991565b604051602081830303815290604052805190602001201415610de45760048181548110610d3b577f4e487b7100000000000000000000000000000000000000000000000000000000600052603260045260246000fd5b906000526020600020906004020160000160009054906101000a900473ffffffffffffffffffffffffffffffffffffffff16945060048181548110610da9577f4e487b7100000000000000000000000000000000000000000000000000000000600052603260045260246000fd5b906000526020600020906004020160030160025490806001815401808255809150506001900390600052602060002001600090919091909150555b8080610def90615e70565b915050610c5b565b5060005b81811015610f975785604051602001610e14919061597a565b6040516020818303038152906040528051906020012060058281548110610e64577f4e487b7100000000000000000000000000000000000000000000000000000000600052603260045260246000fd5b9060005260206000209060060201600301604051602001610e859190615991565b604051602081830303815290604052805190602001201415610f845760058181548110610edb577f4e487b7100000000000000000000000000000000000000000000000000000000600052603260045260246000fd5b906000526020600020906006020160020160009054906101000a900473ffffffffffffffffffffffffffffffffffffffff16935060058181548110610f49577f4e487b7100000000000000000000000000000000000000000000000000000000600052603260045260246000fd5b906000526020600020906006020160050160025490806001815401808255809150506001900390600052602060002001600090919091909150555b8080610f8f90615e70565b915050610dfb565b506000600860006002548152602001908152602001600020905060025481600001819055506001600254610fcb9190615cc8565b60028190555089816001019080519060200190610fe9929190614b24565b50888160020181905550600081600401819055506000816005018190555060008160060181905550878160030181905550848160070160006101000a81548173ffffffffffffffffffffffffffffffffffffffff021916908373ffffffffffffffffffffffffffffffffffffffff16021790555086816008019080519060200190611075929190614b24565b508581600a01908051906020019061108e929190614b24565b50838160090160006101000a81548173ffffffffffffffffffffffffffffffffffffffff021916908373ffffffffffffffffffffffffffffffffffffffff16021790555050505050505050505050565b6000600860008381526020019081526020016000206003015460086000848152602001908152602001600020600201546111189190615d1e565b905060086000838152602001908152602001600020600b01604051806101000160405280848152602001600860008681526020019081526020016000206006015481526020018381526020014281526020016008600086815260200190815260200160002060070160009054906101000a900473ffffffffffffffffffffffffffffffffffffffff1673ffffffffffffffffffffffffffffffffffffffff1681526020016008600086815260200190815260200160002060080180546111dd90615e0d565b80601f016020809104026020016040519081016040528092919081815260200182805461120990615e0d565b80156112565780601f1061122b57610100808354040283529160200191611256565b820191906000526020600020905b81548152906001019060200180831161123957829003601f168201915b505050505081526020016008600086815260200190815260200160002060090160009054906101000a900473ffffffffffffffffffffffffffffffffffffffff1673ffffffffffffffffffffffffffffffffffffffff16815260200160086000868152602001908152602001600020600a0180546112d390615e0d565b80601f01602080910402602001604051908101604052809291908181526020018280546112ff90615e0d565b801561134c5780601f106113215761010080835404028352916020019161134c565b820191906000526020600020905b81548152906001019060200180831161132f57829003601f168201915b505050505081525090806001815401808255809150506001900390600052602060002090600802016000909190919091506000820151816000015560208201518160010155604082015181600201556060820151816003015560808201518160040160006101000a81548173ffffffffffffffffffffffffffffffffffffffff021916908373ffffffffffffffffffffffffffffffffffffffff16021790555060a0820151816005019080519060200190611408929190614b24565b5060c08201518160060160006101000a81548173ffffffffffffffffffffffffffffffffffffffff021916908373ffffffffffffffffffffffffffffffffffffffff16021790555060e082015181600701908051906020019061146c929190614b24565b505050600160086000848152602001908152602001600020600601546114929190615cc8565b60086000848152602001908152602001600020600601819055506008600083815260200190815260200160002060030154600860008481526020019081526020016000206006015411156114fd57600260086000848152602001908152602001600020600501819055505b6000600580549050905060005b818110156116a5576008600085815260200190815260200160002060090160009054906101000a900473ffffffffffffffffffffffffffffffffffffffff1673ffffffffffffffffffffffffffffffffffffffff1660058281548110611599577f4e487b7100000000000000000000000000000000000000000000000000000000600052603260045260246000fd5b906000526020600020906006020160020160009054906101000a900473ffffffffffffffffffffffffffffffffffffffff1673ffffffffffffffffffffffffffffffffffffffff161415611692578260058281548110611622577f4e487b7100000000000000000000000000000000000000000000000000000000600052603260045260246000fd5b90600052602060002090600602016004015461163e9190615cc8565b60058281548110611678577f4e487b7100000000000000000000000000000000000000000000000000000000600052603260045260246000fd5b9060005260206000209060060201600401819055506116a5565b808061169d90615e70565b91505061150a565b50505050565b60606000600480549050905060008060005b838110156117d0573373ffffffffffffffffffffffffffffffffffffffff1660048281548110611716577f4e487b7100000000000000000000000000000000000000000000000000000000600052603260045260246000fd5b906000526020600020906004020160000160009054906101000a900473ffffffffffffffffffffffffffffffffffffffff1673ffffffffffffffffffffffffffffffffffffffff1614156117bd576004818154811061179e577f4e487b7100000000000000000000000000000000000000000000000000000000600052603260045260246000fd5b90600052602060002090600402016003018054905092508091506117d0565b80806117c890615e70565b9150506116bd565b5060008267ffffffffffffffff811115611813577f4e487b7100000000000000000000000000000000000000000000000000000000600052604160045260246000fd5b60405190808252806020026020018201604052801561184c57816020015b611839614baa565b8152602001906001900390816118315790505b50905060005b83811015612133576008600060048581548110611898577f4e487b7100000000000000000000000000000000000000000000000000000000600052603260045260246000fd5b906000526020600020906004020160030183815481106118e1577f4e487b7100000000000000000000000000000000000000000000000000000000600052603260045260246000fd5b90600052602060002001548152602001908152602001600020604051806101a00160405290816000820154815260200160018201805461192090615e0d565b80601f016020809104026020016040519081016040528092919081815260200182805461194c90615e0d565b80156119995780601f1061196e57610100808354040283529160200191611999565b820191906000526020600020905b81548152906001019060200180831161197c57829003601f168201915b5050505050815260200160028201548152602001600382015481526020016004820154815260200160058201548152602001600682015481526020016007820160009054906101000a900473ffffffffffffffffffffffffffffffffffffffff1673ffffffffffffffffffffffffffffffffffffffff1673ffffffffffffffffffffffffffffffffffffffff168152602001600882018054611a3a90615e0d565b80601f0160208091040260200160405190810160405280929190818152602001828054611a6690615e0d565b8015611ab35780601f10611a8857610100808354040283529160200191611ab3565b820191906000526020600020905b815481529060010190602001808311611a9657829003601f168201915b505050505081526020016009820160009054906101000a900473ffffffffffffffffffffffffffffffffffffffff1673ffffffffffffffffffffffffffffffffffffffff1673ffffffffffffffffffffffffffffffffffffffff168152602001600a82018054611b2290615e0d565b80601f0160208091040260200160405190810160405280929190818152602001828054611b4e90615e0d565b8015611b9b5780601f10611b7057610100808354040283529160200191611b9b565b820191906000526020600020905b815481529060010190602001808311611b7e57829003601f168201915b50505050508152602001600b8201805480602002602001604051908101604052809291908181526020016000905b82821015611df4578382906000526020600020906008020160405180610100016040529081600082015481526020016001820154815260200160028201548152602001600382015481526020016004820160009054906101000a900473ffffffffffffffffffffffffffffffffffffffff1673ffffffffffffffffffffffffffffffffffffffff1673ffffffffffffffffffffffffffffffffffffffff168152602001600582018054611c7b90615e0d565b80601f0160208091040260200160405190810160405280929190818152602001828054611ca790615e0d565b8015611cf45780601f10611cc957610100808354040283529160200191611cf4565b820191906000526020600020905b815481529060010190602001808311611cd757829003601f168201915b505050505081526020016006820160009054906101000a900473ffffffffffffffffffffffffffffffffffffffff1673ffffffffffffffffffffffffffffffffffffffff1673ffffffffffffffffffffffffffffffffffffffff168152602001600782018054611d6390615e0d565b80601f0160208091040260200160405190810160405280929190818152602001828054611d8f90615e0d565b8015611ddc5780601f10611db157610100808354040283529160200191611ddc565b820191906000526020600020905b815481529060010190602001808311611dbf57829003601f168201915b50505050508152505081526020019060010190611bc9565b505050508152602001600c8201805480602002602001604051908101604052809291908181526020016000905b828210156120d457838290600052602060002090600802016040518061010001604052908160008201548152602001600182018054611e5f90615e0d565b80601f0160208091040260200160405190810160405280929190818152602001828054611e8b90615e0d565b8015611ed85780601f10611ead57610100808354040283529160200191611ed8565b820191906000526020600020905b815481529060010190602001808311611ebb57829003601f168201915b505050505081526020016002820160009054906101000a900473ffffffffffffffffffffffffffffffffffffffff1673ffffffffffffffffffffffffffffffffffffffff1673ffffffffffffffffffffffffffffffffffffffff168152602001600382018054611f4790615e0d565b80601f0160208091040260200160405190810160405280929190818152602001828054611f7390615e0d565b8015611fc05780601f10611f9557610100808354040283529160200191611fc0565b820191906000526020600020905b815481529060010190602001808311611fa357829003601f168201915b5050505050815260200160048201548152602001600582015481526020016006820160009054906101000a900473ffffffffffffffffffffffffffffffffffffffff1673ffffffffffffffffffffffffffffffffffffffff1673ffffffffffffffffffffffffffffffffffffffff16815260200160078201805461204390615e0d565b80601f016020809104026020016040519081016040528092919081815260200182805461206f90615e0d565b80156120bc5780601f10612091576101008083540402835291602001916120bc565b820191906000526020600020905b81548152906001019060200180831161209f57829003601f168201915b50505050508152505081526020019060010190611e21565b5050505081525050828281518110612115577f4e487b7100000000000000000000000000000000000000000000000000000000600052603260045260246000fd5b6020026020010181905250808061212b90615e70565b915050611852565b508094505050505090565b6000600254905090565b6000600860008381526020019081526020016000206003015460086000848152602001908152602001600020600201546121829190615d1e565b90508060086000848152602001908152602001600020600401546121a69190615cc8565b600860008481526020019081526020016000206004018190555060086000838152602001908152602001600020600b016040518061010001604052808481526020016008600086815260200190815260200160002060060154815260200183815260200142815260200160008054906101000a900473ffffffffffffffffffffffffffffffffffffffff1673ffffffffffffffffffffffffffffffffffffffff1681526020016040518060400160405280600781526020017f43656e7472616c0000000000000000000000000000000000000000000000000081525081526020016008600086815260200190815260200160002060070160009054906101000a900473ffffffffffffffffffffffffffffffffffffffff1673ffffffffffffffffffffffffffffffffffffffff1681526020016008600086815260200190815260200160002060080180546122fa90615e0d565b80601f016020809104026020016040519081016040528092919081815260200182805461232690615e0d565b80156123735780601f1061234857610100808354040283529160200191612373565b820191906000526020600020905b81548152906001019060200180831161235657829003601f168201915b505050505081525090806001815401808255809150506001900390600052602060002090600802016000909190919091506000820151816000015560208201518160010155604082015181600201556060820151816003015560808201518160040160006101000a81548173ffffffffffffffffffffffffffffffffffffffff021916908373ffffffffffffffffffffffffffffffffffffffff16021790555060a082015181600501908051906020019061242f929190614b24565b5060c08201518160060160006101000a81548173ffffffffffffffffffffffffffffffffffffffff021916908373ffffffffffffffffffffffffffffffffffffffff16021790555060e0820151816007019080519060200190612493929190614b24565b5050506000600480549050905060005b8181101561263e576008600085815260200190815260200160002060070160009054906101000a900473ffffffffffffffffffffffffffffffffffffffff1673ffffffffffffffffffffffffffffffffffffffff1660048281548110612532577f4e487b7100000000000000000000000000000000000000000000000000000000600052603260045260246000fd5b906000526020600020906004020160000160009054906101000a900473ffffffffffffffffffffffffffffffffffffffff1673ffffffffffffffffffffffffffffffffffffffff16141561262b5782600482815481106125bb577f4e487b7100000000000000000000000000000000000000000000000000000000600052603260045260246000fd5b9060005260206000209060040201600201546125d79190615cc8565b60048281548110612611577f4e487b7100000000000000000000000000000000000000000000000000000000600052603260045260246000fd5b90600052602060002090600402016002018190555061263e565b808061263690615e70565b9150506124a3565b50505050565b600080600480549050905060005b818110156127c0578360405160200161266b919061597a565b60405160208183030381529060405280519060200120600482815481106126bb577f4e487b7100000000000000000000000000000000000000000000000000000000600052603260045260246000fd5b90600052602060002090600402016001016040516020016126dc9190615991565b604051602081830303815290604052805190602001201415612703576000925050506127c7565b6004818154811061273d577f4e487b7100000000000000000000000000000000000000000000000000000000600052603260045260246000fd5b906000526020600020906004020160000160009054906101000a900473ffffffffffffffffffffffffffffffffffffffff1673ffffffffffffffffffffffffffffffffffffffff163373ffffffffffffffffffffffffffffffffffffffff1614156127ad576000925050506127c7565b80806127b890615e70565b915050612652565b5060019150505b919050565b6000600580549050905060008080600090505b83811015612925576008600089815260200190815260200160002060090160009054906101000a900473ffffffffffffffffffffffffffffffffffffffff1673ffffffffffffffffffffffffffffffffffffffff166005828154811061286e577f4e487b7100000000000000000000000000000000000000000000000000000000600052603260045260246000fd5b906000526020600020906006020160020160009054906101000a900473ffffffffffffffffffffffffffffffffffffffff1673ffffffffffffffffffffffffffffffffffffffff16141561291257600581815481106128f6577f4e487b7100000000000000000000000000000000000000000000000000000000600052603260045260246000fd5b9060005260206000209060060201600401549250809150612925565b808061291d90615e70565b9150506127df565b50858210612d93578560058281548110612968577f4e487b7100000000000000000000000000000000000000000000000000000000600052603260045260246000fd5b9060005260206000209060060201600401546129849190615d4f565b600582815481106129be577f4e487b7100000000000000000000000000000000000000000000000000000000600052603260045260246000fd5b90600052602060002090600602016004018190555060006006805490509050600080600090505b82811015612b1157876040516020016129fe919061597a565b6040516020818303038152906040528051906020012060068281548110612a4e577f4e487b7100000000000000000000000000000000000000000000000000000000600052603260045260246000fd5b9060005260206000209060040201600301604051602001612a6f9190615991565b604051602081830303815290604052805190602001201415612afe5760068181548110612ac5577f4e487b7100000000000000000000000000000000000000000000000000000000600052603260045260246000fd5b906000526020600020906004020160020160009054906101000a900473ffffffffffffffffffffffffffffffffffffffff169150612b11565b8080612b0990615e70565b9150506129e5565b50600860008a8152602001908152602001600020600c016040518061010001604052808b81526020018881526020018373ffffffffffffffffffffffffffffffffffffffff1681526020018981526020018a8152602001428152602001600860008d815260200190815260200160002060090160009054906101000a900473ffffffffffffffffffffffffffffffffffffffff1673ffffffffffffffffffffffffffffffffffffffff168152602001600860008d8152602001908152602001600020600a018054612be190615e0d565b80601f0160208091040260200160405190810160405280929190818152602001828054612c0d90615e0d565b8015612c5a5780601f10612c2f57610100808354040283529160200191612c5a565b820191906000526020600020905b815481529060010190602001808311612c3d57829003601f168201915b50505050508152509080600181540180825580915050600190039060005260206000209060080201600090919091909150600082015181600001556020820151816001019080519060200190612cb1929190614b24565b5060408201518160020160006101000a81548173ffffffffffffffffffffffffffffffffffffffff021916908373ffffffffffffffffffffffffffffffffffffffff1602179055506060820151816003019080519060200190612d15929190614b24565b506080820151816004015560a0820151816005015560c08201518160060160006101000a81548173ffffffffffffffffffffffffffffffffffffffff021916908373ffffffffffffffffffffffffffffffffffffffff16021790555060e0820151816007019080519060200190612d8d929190614b24565b50505050505b50505050505050565b6060600060025467ffffffffffffffff811115612de2577f4e487b7100000000000000000000000000000000000000000000000000000000600052604160045260246000fd5b604051908082528060200260200182016040528015612e1b57816020015b612e08614baa565b815260200190600190039081612e005790505b50905060005b6002548110156136775760086000828152602001908152602001600020604051806101a001604052908160008201548152602001600182018054612e6490615e0d565b80601f0160208091040260200160405190810160405280929190818152602001828054612e9090615e0d565b8015612edd5780601f10612eb257610100808354040283529160200191612edd565b820191906000526020600020905b815481529060010190602001808311612ec057829003601f168201915b5050505050815260200160028201548152602001600382015481526020016004820154815260200160058201548152602001600682015481526020016007820160009054906101000a900473ffffffffffffffffffffffffffffffffffffffff1673ffffffffffffffffffffffffffffffffffffffff1673ffffffffffffffffffffffffffffffffffffffff168152602001600882018054612f7e90615e0d565b80601f0160208091040260200160405190810160405280929190818152602001828054612faa90615e0d565b8015612ff75780601f10612fcc57610100808354040283529160200191612ff7565b820191906000526020600020905b815481529060010190602001808311612fda57829003601f168201915b505050505081526020016009820160009054906101000a900473ffffffffffffffffffffffffffffffffffffffff1673ffffffffffffffffffffffffffffffffffffffff1673ffffffffffffffffffffffffffffffffffffffff168152602001600a8201805461306690615e0d565b80601f016020809104026020016040519081016040528092919081815260200182805461309290615e0d565b80156130df5780601f106130b4576101008083540402835291602001916130df565b820191906000526020600020905b8154815290600101906020018083116130c257829003601f168201915b50505050508152602001600b8201805480602002602001604051908101604052809291908181526020016000905b82821015613338578382906000526020600020906008020160405180610100016040529081600082015481526020016001820154815260200160028201548152602001600382015481526020016004820160009054906101000a900473ffffffffffffffffffffffffffffffffffffffff1673ffffffffffffffffffffffffffffffffffffffff1673ffffffffffffffffffffffffffffffffffffffff1681526020016005820180546131bf90615e0d565b80601f01602080910402602001604051908101604052809291908181526020018280546131eb90615e0d565b80156132385780601f1061320d57610100808354040283529160200191613238565b820191906000526020600020905b81548152906001019060200180831161321b57829003601f168201915b505050505081526020016006820160009054906101000a900473ffffffffffffffffffffffffffffffffffffffff1673ffffffffffffffffffffffffffffffffffffffff1673ffffffffffffffffffffffffffffffffffffffff1681526020016007820180546132a790615e0d565b80601f01602080910402602001604051908101604052809291908181526020018280546132d390615e0d565b80156133205780601f106132f557610100808354040283529160200191613320565b820191906000526020600020905b81548152906001019060200180831161330357829003601f168201915b5050505050815250508152602001906001019061310d565b505050508152602001600c8201805480602002602001604051908101604052809291908181526020016000905b82821015613618578382906000526020600020906008020160405180610100016040529081600082015481526020016001820180546133a390615e0d565b80601f01602080910402602001604051908101604052809291908181526020018280546133cf90615e0d565b801561341c5780601f106133f15761010080835404028352916020019161341c565b820191906000526020600020905b8154815290600101906020018083116133ff57829003601f168201915b505050505081526020016002820160009054906101000a900473ffffffffffffffffffffffffffffffffffffffff1673ffffffffffffffffffffffffffffffffffffffff1673ffffffffffffffffffffffffffffffffffffffff16815260200160038201805461348b90615e0d565b80601f01602080910402602001604051908101604052809291908181526020018280546134b790615e0d565b80156135045780601f106134d957610100808354040283529160200191613504565b820191906000526020600020905b8154815290600101906020018083116134e757829003601f168201915b5050505050815260200160048201548152602001600582015481526020016006820160009054906101000a900473ffffffffffffffffffffffffffffffffffffffff1673ffffffffffffffffffffffffffffffffffffffff1673ffffffffffffffffffffffffffffffffffffffff16815260200160078201805461358790615e0d565b80601f01602080910402602001604051908101604052809291908181526020018280546135b390615e0d565b80156136005780601f106135d557610100808354040283529160200191613600565b820191906000526020600020905b8154815290600101906020018083116135e357829003601f168201915b50505050508152505081526020019060010190613365565b5050505081525050828281518110613659577f4e487b7100000000000000000000000000000000000000000000000000000000600052603260045260246000fd5b6020026020010181905250808061366f90615e70565b915050612e21565b508091505090565b600080600580549050905060005b81811015613752573373ffffffffffffffffffffffffffffffffffffffff16600582815481106136e6577f4e487b7100000000000000000000000000000000000000000000000000000000600052603260045260246000fd5b906000526020600020906006020160020160009054906101000a900473ffffffffffffffffffffffffffffffffffffffff1673ffffffffffffffffffffffffffffffffffffffff16141561373f57600192505050613759565b808061374a90615e70565b91505061368d565b5060009150505b90565b613764614c3e565b33816000019073ffffffffffffffffffffffffffffffffffffffff16908173ffffffffffffffffffffffffffffffffffffffff168152505083816020018190525082816040019073ffffffffffffffffffffffffffffffffffffffff16908173ffffffffffffffffffffffffffffffffffffffff16815250508181606001819052506000816080018181525050600581908060018154018082558091505060019003906000526020600020906006020160009091909190915060008201518160000160006101000a81548173ffffffffffffffffffffffffffffffffffffffff021916908373ffffffffffffffffffffffffffffffffffffffff1602179055506020820151816001019080519060200190613880929190614b24565b5060408201518160020160006101000a81548173ffffffffffffffffffffffffffffffffffffffff021916908373ffffffffffffffffffffffffffffffffffffffff16021790555060608201518160030190805190602001906138e4929190614b24565b506080820151816004015560a082015181600501908051906020019061390b929190614ca0565b50505050505050565b600080600580549050905060005b81811015613a90578360405160200161393b919061597a565b604051602081830303815290604052805190602001206005828154811061398b577f4e487b7100000000000000000000000000000000000000000000000000000000600052603260045260246000fd5b90600052602060002090600602016003016040516020016139ac9190615991565b6040516020818303038152906040528051906020012014156139d357600092505050613a97565b60058181548110613a0d577f4e487b7100000000000000000000000000000000000000000000000000000000600052603260045260246000fd5b906000526020600020906006020160020160009054906101000a900473ffffffffffffffffffffffffffffffffffffffff1673ffffffffffffffffffffffffffffffffffffffff163373ffffffffffffffffffffffffffffffffffffffff161415613a7d57600092505050613a97565b8080613a8890615e70565b915050613922565b5060019150505b919050565b613aa4614ced565b82816000019073ffffffffffffffffffffffffffffffffffffffff16908173ffffffffffffffffffffffffffffffffffffffff16815250508181602001819052506000816040018181525050600481908060018154018082558091505060019003906000526020600020906004020160009091909190915060008201518160000160006101000a81548173ffffffffffffffffffffffffffffffffffffffff021916908373ffffffffffffffffffffffffffffffffffffffff1602179055506020820151816001019080519060200190613b7f929190614b24565b50604082015181600201556060820151816003019080519060200190613ba6929190614ca0565b505050505050565b600080600480549050905060005b81811015613c81573373ffffffffffffffffffffffffffffffffffffffff1660048281548110613c15577f4e487b7100000000000000000000000000000000000000000000000000000000600052603260045260246000fd5b906000526020600020906004020160000160009054906101000a900473ffffffffffffffffffffffffffffffffffffffff1673ffffffffffffffffffffffffffffffffffffffff161415613c6e57600192505050613c88565b8080613c7990615e70565b915050613bbc565b5060009150505b90565b60015481565b60008054906101000a900473ffffffffffffffffffffffffffffffffffffffff1681565b6060600060078054905090506000805b82811015613d8e5760078181548110613d07577f4e487b7100000000000000000000000000000000000000000000000000000000600052603260045260246000fd5b906000526020600020906007020160030160009054906101000a900473ffffffffffffffffffffffffffffffffffffffff1673ffffffffffffffffffffffffffffffffffffffff163373ffffffffffffffffffffffffffffffffffffffff161415613d7b578180613d7790615e70565b9250505b8080613d8690615e70565b915050613cc5565b5060008167ffffffffffffffff811115613dd1577f4e487b7100000000000000000000000000000000000000000000000000000000600052604160045260246000fd5b604051908082528060200260200182016040528015613e0a57816020015b613df7614d2b565b815260200190600190039081613def5790505b5090506000805b848110156141145760078181548110613e53577f4e487b7100000000000000000000000000000000000000000000000000000000600052603260045260246000fd5b906000526020600020906007020160030160009054906101000a900473ffffffffffffffffffffffffffffffffffffffff1673ffffffffffffffffffffffffffffffffffffffff163373ffffffffffffffffffffffffffffffffffffffff1614156141015760078181548110613ef2577f4e487b7100000000000000000000000000000000000000000000000000000000600052603260045260246000fd5b90600052602060002090600702016040518060e00160405290816000820154815260200160018201548152602001600282018054613f2f90615e0d565b80601f0160208091040260200160405190810160405280929190818152602001828054613f5b90615e0d565b8015613fa85780601f10613f7d57610100808354040283529160200191613fa8565b820191906000526020600020905b815481529060010190602001808311613f8b57829003601f168201915b505050505081526020016003820160009054906101000a900473ffffffffffffffffffffffffffffffffffffffff1673ffffffffffffffffffffffffffffffffffffffff1673ffffffffffffffffffffffffffffffffffffffff16815260200160048201805461401790615e0d565b80601f016020809104026020016040519081016040528092919081815260200182805461404390615e0d565b80156140905780601f1061406557610100808354040283529160200191614090565b820191906000526020600020905b81548152906001019060200180831161407357829003601f168201915b50505050508152602001600582015481526020016006820154815250508383815181106140e6577f4e487b7100000000000000000000000000000000000000000000000000000000600052603260045260246000fd5b60200260200101819052506001826140fe9190615cc8565b91505b808061410c90615e70565b915050613e11565b508194505050505090565b8060015461412d9190615cc8565b60018190555050565b600160086000838152602001908152602001600020600501819055506001600860008381526020019081526020016000206006018190555050565b614179614baa565b60086000838152602001908152602001600020604051806101a0016040529081600082015481526020016001820180546141b290615e0d565b80601f01602080910402602001604051908101604052809291908181526020018280546141de90615e0d565b801561422b5780601f106142005761010080835404028352916020019161422b565b820191906000526020600020905b81548152906001019060200180831161420e57829003601f168201915b5050505050815260200160028201548152602001600382015481526020016004820154815260200160058201548152602001600682015481526020016007820160009054906101000a900473ffffffffffffffffffffffffffffffffffffffff1673ffffffffffffffffffffffffffffffffffffffff1673ffffffffffffffffffffffffffffffffffffffff1681526020016008820180546142cc90615e0d565b80601f01602080910402602001604051908101604052809291908181526020018280546142f890615e0d565b80156143455780601f1061431a57610100808354040283529160200191614345565b820191906000526020600020905b81548152906001019060200180831161432857829003601f168201915b505050505081526020016009820160009054906101000a900473ffffffffffffffffffffffffffffffffffffffff1673ffffffffffffffffffffffffffffffffffffffff1673ffffffffffffffffffffffffffffffffffffffff168152602001600a820180546143b490615e0d565b80601f01602080910402602001604051908101604052809291908181526020018280546143e090615e0d565b801561442d5780601f106144025761010080835404028352916020019161442d565b820191906000526020600020905b81548152906001019060200180831161441057829003601f168201915b50505050508152602001600b8201805480602002602001604051908101604052809291908181526020016000905b82821015614686578382906000526020600020906008020160405180610100016040529081600082015481526020016001820154815260200160028201548152602001600382015481526020016004820160009054906101000a900473ffffffffffffffffffffffffffffffffffffffff1673ffffffffffffffffffffffffffffffffffffffff1673ffffffffffffffffffffffffffffffffffffffff16815260200160058201805461450d90615e0d565b80601f016020809104026020016040519081016040528092919081815260200182805461453990615e0d565b80156145865780601f1061455b57610100808354040283529160200191614586565b820191906000526020600020905b81548152906001019060200180831161456957829003601f168201915b505050505081526020016006820160009054906101000a900473ffffffffffffffffffffffffffffffffffffffff1673ffffffffffffffffffffffffffffffffffffffff1673ffffffffffffffffffffffffffffffffffffffff1681526020016007820180546145f590615e0d565b80601f016020809104026020016040519081016040528092919081815260200182805461462190615e0d565b801561466e5780601f106146435761010080835404028352916020019161466e565b820191906000526020600020905b81548152906001019060200180831161465157829003601f168201915b5050505050815250508152602001906001019061445b565b505050508152602001600c8201805480602002602001604051908101604052809291908181526020016000905b82821015614966578382906000526020600020906008020160405180610100016040529081600082015481526020016001820180546146f190615e0d565b80601f016020809104026020016040519081016040528092919081815260200182805461471d90615e0d565b801561476a5780601f1061473f5761010080835404028352916020019161476a565b820191906000526020600020905b81548152906001019060200180831161474d57829003601f168201915b505050505081526020016002820160009054906101000a900473ffffffffffffffffffffffffffffffffffffffff1673ffffffffffffffffffffffffffffffffffffffff1673ffffffffffffffffffffffffffffffffffffffff1681526020016003820180546147d990615e0d565b80601f016020809104026020016040519081016040528092919081815260200182805461480590615e0d565b80156148525780601f1061482757610100808354040283529160200191614852565b820191906000526020600020905b81548152906001019060200180831161483557829003601f168201915b5050505050815260200160048201548152602001600582015481526020016006820160009054906101000a900473ffffffffffffffffffffffffffffffffffffffff1673ffffffffffffffffffffffffffffffffffffffff1673ffffffffffffffffffffffffffffffffffffffff1681526020016007820180546148d590615e0d565b80601f016020809104026020016040519081016040528092919081815260200182805461490190615e0d565b801561494e5780601f106149235761010080835404028352916020019161494e565b820191906000526020600020905b81548152906001019060200180831161493157829003601f168201915b505050505081525050815260200190600101906146b3565b50505050815250509050919050565b60008060009054906101000a900473ffffffffffffffffffffffffffffffffffffffff1673ffffffffffffffffffffffffffffffffffffffff163373ffffffffffffffffffffffffffffffffffffffff1614156149d557600190506149da565b600090505b90565b600660405180608001604052803373ffffffffffffffffffffffffffffffffffffffff1681526020018581526020018473ffffffffffffffffffffffffffffffffffffffff16815260200183815250908060018154018082558091505060019003906000526020600020906004020160009091909190915060008201518160000160006101000a81548173ffffffffffffffffffffffffffffffffffffffff021916908373ffffffffffffffffffffffffffffffffffffffff1602179055506020820151816001019080519060200190614ab8929190614b24565b5060408201518160020160006101000a81548173ffffffffffffffffffffffffffffffffffffffff021916908373ffffffffffffffffffffffffffffffffffffffff1602179055506060820151816003019080519060200190614b1c929190614b24565b505050505050565b828054614b3090615e0d565b90600052602060002090601f016020900481019282614b525760008555614b99565b82601f10614b6b57805160ff1916838001178555614b99565b82800160010185558215614b99579182015b82811115614b98578251825591602001919060010190614b7d565b5b509050614ba69190614d7e565b5090565b604051806101a0016040528060008152602001606081526020016000815260200160008152602001600081526020016000815260200160008152602001600073ffffffffffffffffffffffffffffffffffffffff16815260200160608152602001600073ffffffffffffffffffffffffffffffffffffffff1681526020016060815260200160608152602001606081525090565b6040518060c00160405280600073ffffffffffffffffffffffffffffffffffffffff16815260200160608152602001600073ffffffffffffffffffffffffffffffffffffffff1681526020016060815260200160008152602001606081525090565b828054828255906000526020600020908101928215614cdc579160200282015b82811115614cdb578251825591602001919060010190614cc0565b5b509050614ce99190614d7e565b5090565b6040518060800160405280600073ffffffffffffffffffffffffffffffffffffffff1681526020016060815260200160008152602001606081525090565b6040518060e00160405280600081526020016000815260200160608152602001600073ffffffffffffffffffffffffffffffffffffffff1681526020016060815260200160008152602001600081525090565b5b80821115614d97576000816000905550600101614d7f565b5090565b6000614dae614da984615b66565b615b41565b905082815260208101848484011115614dc657600080fd5b614dd1848285615dcb565b509392505050565b600081359050614de881615f86565b92915050565b600082601f830112614dff57600080fd5b8135614e0f848260208601614d9b565b91505092915050565b600081359050614e2781615f9d565b92915050565b60008060408385031215614e4057600080fd5b6000614e4e85828601614dd9565b925050602083013567ffffffffffffffff811115614e6b57600080fd5b614e7785828601614dee565b9150509250929050565b600060208284031215614e9357600080fd5b600082013567ffffffffffffffff811115614ead57600080fd5b614eb984828501614dee565b91505092915050565b600080600060608486031215614ed757600080fd5b600084013567ffffffffffffffff811115614ef157600080fd5b614efd86828701614dee565b9350506020614f0e86828701614dd9565b925050604084013567ffffffffffffffff811115614f2b57600080fd5b614f3786828701614dee565b9150509250925092565b60008060008060808587031215614f5757600080fd5b600085013567ffffffffffffffff811115614f7157600080fd5b614f7d87828801614dee565b945050602085013567ffffffffffffffff811115614f9a57600080fd5b614fa687828801614dee565b935050604085013567ffffffffffffffff811115614fc357600080fd5b614fcf87828801614dee565b9250506060614fe087828801614e18565b91505092959194509250565b600080600080600060a0868803121561500457600080fd5b600086013567ffffffffffffffff81111561501e57600080fd5b61502a88828901614dee565b955050602061503b88828901614e18565b945050604061504c88828901614e18565b935050606086013567ffffffffffffffff81111561506957600080fd5b61507588828901614dee565b925050608086013567ffffffffffffffff81111561509257600080fd5b61509e88828901614dee565b9150509295509295909350565b6000602082840312156150bd57600080fd5b60006150cb84828501614e18565b91505092915050565b600080600080608085870312156150ea57600080fd5b60006150f887828801614e18565b945050602061510987828801614e18565b935050604085013567ffffffffffffffff81111561512657600080fd5b61513287828801614dee565b925050606085013567ffffffffffffffff81111561514f57600080fd5b61515b87828801614dee565b91505092959194509250565b600061517383836154da565b905092915050565b6000615187838361557d565b905092915050565b600061519b8383615634565b905092915050565b60006151af838361589e565b905092915050565b6151c081615d83565b82525050565b6151cf81615d83565b82525050565b60006151e082615bec565b6151ea8185615c57565b9350836020820285016151fc85615b97565b8060005b8581101561523857848403895281516152198582615167565b945061522483615c23565b925060208a01995050600181019050615200565b50829750879550505050505092915050565b600061525582615bf7565b61525f8185615c68565b93508360208202850161527185615ba7565b8060005b858110156152ad578484038952815161528e858261517b565b945061529983615c30565b925060208a01995050600181019050615275565b50829750879550505050505092915050565b60006152ca82615c02565b6152d48185615c79565b9350836020820285016152e685615bb7565b8060005b858110156153225784840389528151615303858261518f565b945061530e83615c3d565b925060208a019950506001810190506152ea565b50829750879550505050505092915050565b600061533f82615c0d565b6153498185615c8a565b93508360208202850161535b85615bc7565b8060005b85811015615397578484038952815161537885826151a3565b945061538383615c4a565b925060208a0199505060018101905061535f565b50829750879550505050505092915050565b6153b281615d95565b82525050565b60006153c382615c18565b6153cd8185615c9b565b93506153dd818560208601615dda565b6153e681615f75565b840191505092915050565b60006153fc82615c18565b6154068185615cac565b9350615416818560208601615dda565b61541f81615f75565b840191505092915050565b600061543582615c18565b61543f8185615cbd565b935061544f818560208601615dda565b80840191505092915050565b6000815461546881615e0d565b6154728186615cbd565b9450600182166000811461548d576001811461549e576154d1565b60ff198316865281860193506154d1565b6154a785615bd7565b60005b838110156154c9578154818901526001820191506020810190506154aa565b838801955050505b50505092915050565b600060e0830160008301516154f2600086018261595c565b506020830151615505602086018261595c565b506040830151848203604086015261551d82826153b8565b915050606083015161553260608601826151b7565b506080830151848203608086015261554a82826153b8565b91505060a083015161555f60a086018261595c565b5060c083015161557260c086018261595c565b508091505092915050565b600061010083016000830151615596600086018261595c565b5060208301516155a9602086018261595c565b5060408301516155bc604086018261595c565b5060608301516155cf606086018261595c565b5060808301516155e260808601826151b7565b5060a083015184820360a08601526155fa82826153b8565b91505060c083015161560f60c08601826151b7565b5060e083015184820360e086015261562782826153b8565b9150508091505092915050565b60006101a08301600083015161564d600086018261595c565b506020830151848203602086015261566582826153b8565b915050604083015161567a604086018261595c565b50606083015161568d606086018261595c565b5060808301516156a0608086018261595c565b5060a08301516156b360a086018261595c565b5060c08301516156c660c086018261595c565b5060e08301516156d960e08601826151b7565b506101008301518482036101008601526156f382826153b8565b91505061012083015161570a6101208601826151b7565b5061014083015184820361014086015261572482826153b8565b915050610160830151848203610160860152615740828261524a565b91505061018083015184820361018086015261575c8282615334565b9150508091505092915050565b60006101a083016000830151615782600086018261595c565b506020830151848203602086015261579a82826153b8565b91505060408301516157af604086018261595c565b5060608301516157c2606086018261595c565b5060808301516157d5608086018261595c565b5060a08301516157e860a086018261595c565b5060c08301516157fb60c086018261595c565b5060e083015161580e60e08601826151b7565b5061010083015184820361010086015261582882826153b8565b91505061012083015161583f6101208601826151b7565b5061014083015184820361014086015261585982826153b8565b915050610160830151848203610160860152615875828261524a565b9150506101808301518482036101808601526158918282615334565b9150508091505092915050565b6000610100830160008301516158b7600086018261595c565b50602083015184820360208601526158cf82826153b8565b91505060408301516158e460408601826151b7565b50606083015184820360608601526158fc82826153b8565b9150506080830151615911608086018261595c565b5060a083015161592460a086018261595c565b5060c083015161593760c08601826151b7565b5060e083015184820360e086015261594f82826153b8565b9150508091505092915050565b61596581615dc1565b82525050565b61597481615dc1565b82525050565b6000615986828461542a565b915081905092915050565b600061599d828461545b565b915081905092915050565b60006020820190506159bd60008301846151c6565b92915050565b600060208201905081810360008301526159dd81846151d5565b905092915050565b600060208201905081810360008301526159ff81846152bf565b905092915050565b6000602082019050615a1c60008301846153a9565b92915050565b60006020820190508181036000830152615a3c81846153f1565b905092915050565b60006020820190508181036000830152615a5e8184615769565b905092915050565b6000602082019050615a7b600083018461596b565b92915050565b600061016082019050615a97600083018e61596b565b8181036020830152615aa9818d6153f1565b9050615ab8604083018c61596b565b615ac5606083018b61596b565b615ad2608083018a61596b565b615adf60a083018961596b565b615aec60c083018861596b565b615af960e08301876151c6565b818103610100830152615b0c81866153f1565b9050615b1c6101208301856151c6565b818103610140830152615b2f81846153f1565b90509c9b505050505050505050505050565b6000615b4b615b5c565b9050615b578282615e3f565b919050565b6000604051905090565b600067ffffffffffffffff821115615b8157615b80615f46565b5b615b8a82615f75565b9050602081019050919050565b6000819050602082019050919050565b6000819050602082019050919050565b6000819050602082019050919050565b6000819050602082019050919050565b60008190508160005260206000209050919050565b600081519050919050565b600081519050919050565b600081519050919050565b600081519050919050565b600081519050919050565b6000602082019050919050565b6000602082019050919050565b6000602082019050919050565b6000602082019050919050565b600082825260208201905092915050565b600082825260208201905092915050565b600082825260208201905092915050565b600082825260208201905092915050565b600082825260208201905092915050565b600082825260208201905092915050565b600081905092915050565b6000615cd382615dc1565b9150615cde83615dc1565b9250827fffffffffffffffffffffffffffffffffffffffffffffffffffffffffffffffff03821115615d1357615d12615eb9565b5b828201905092915050565b6000615d2982615dc1565b9150615d3483615dc1565b925082615d4457615d43615ee8565b5b828204905092915050565b6000615d5a82615dc1565b9150615d6583615dc1565b925082821015615d7857615d77615eb9565b5b828203905092915050565b6000615d8e82615da1565b9050919050565b60008115159050919050565b600073ffffffffffffffffffffffffffffffffffffffff82169050919050565b6000819050919050565b82818337600083830152505050565b60005b83811015615df8578082015181840152602081019050615ddd565b83811115615e07576000848401525b50505050565b60006002820490506001821680615e2557607f821691505b60208210811415615e3957615e38615f17565b5b50919050565b615e4882615f75565b810181811067ffffffffffffffff82111715615e6757615e66615f46565b5b80604052505050565b6000615e7b82615dc1565b91507fffffffffffffffffffffffffffffffffffffffffffffffffffffffffffffffff821415615eae57615ead615eb9565b5b600182019050919050565b7f4e487b7100000000000000000000000000000000000000000000000000000000600052601160045260246000fd5b7f4e487b7100000000000000000000000000000000000000000000000000000000600052601260045260246000fd5b7f4e487b7100000000000000000000000000000000000000000000000000000000600052602260045260246000fd5b7f4e487b7100000000000000000000000000000000000000000000000000000000600052604160045260246000fd5b6000601f19601f8301169050919050565b615f8f81615d83565b8114615f9a57600080fd5b50565b615fa681615dc1565b8114615fb157600080fd5b5056fea2646970667358221220516264dee5d17cbb25de1030a10f9af3a2080d4c700b8791efb2b817a3b4fd2a64736f6c63430008010033",
    "linkReferences": {},
    "deployedLinkReferences": {}
}