{
  "_format": "hh-sol-artifact-1",
  "contractName": "Funds",
  "sourceName": "contracts/Funds.sol",
  "abi": [
    {
      "inputs": [],
      "stateMutability": "nonpayable",
      "type": "constructor"
    },
    {
      "inputs": [
        {
          "internalType": "uint256",
          "name": "_amount",
          "type": "uint256"
        }
      ],
      "name": "AddFunds",
      "outputs": [],
      "stateMutability": "nonpayable",
      "type": "function"
    },
    {
      "inputs": [
        {
          "internalType": "uint256",
          "name": "_id",
          "type": "uint256"
        }
      ],
      "name": "ApproveProjects",
      "outputs": [],
      "stateMutability": "nonpayable",
      "type": "function"
    },
    {
      "inputs": [],
      "name": "CentralLogin",
      "outputs": [
        {
          "internalType": "bool",
          "name": "",
          "type": "bool"
        }
      ],
      "stateMutability": "view",
      "type": "function"
    },
    {
      "inputs": [
        {
          "internalType": "string",
          "name": "_name",
          "type": "string"
        }
      ],
      "name": "DepartmentCheck",
      "outputs": [
        {
          "internalType": "bool",
          "name": "",
          "type": "bool"
        }
      ],
      "stateMutability": "view",
      "type": "function"
    },
    {
      "inputs": [],
      "name": "DepartmentLogin",
      "outputs": [
        {
          "internalType": "bool",
          "name": "",
          "type": "bool"
        }
      ],
      "stateMutability": "view",
      "type": "function"
    },
    {
      "inputs": [
        {
          "internalType": "string",
          "name": "_under_name",
          "type": "string"
        },
        {
          "internalType": "address",
          "name": "_add",
          "type": "address"
        },
        {
          "internalType": "string",
          "name": "_name",
          "type": "string"
        }
      ],
      "name": "DepartmentRegister",
      "outputs": [],
      "stateMutability": "nonpayable",
      "type": "function"
    },
    {
      "inputs": [],
      "name": "GetBalance",
      "outputs": [
        {
          "internalType": "uint256",
          "name": "",
          "type": "uint256"
        }
      ],
      "stateMutability": "view",
      "type": "function"
    },
    {
      "inputs": [],
      "name": "GetSpend",
      "outputs": [
        {
          "internalType": "uint256",
          "name": "",
          "type": "uint256"
        }
      ],
      "stateMutability": "view",
      "type": "function"
    },
    {
      "inputs": [
        {
          "internalType": "string",
          "name": "_name",
          "type": "string"
        }
      ],
      "name": "GovernmentCheck",
      "outputs": [
        {
          "internalType": "bool",
          "name": "",
          "type": "bool"
        }
      ],
      "stateMutability": "view",
      "type": "function"
    },
    {
      "inputs": [],
      "name": "GovernmentLogin",
      "outputs": [
        {
          "internalType": "bool",
          "name": "",
          "type": "bool"
        }
      ],
      "stateMutability": "view",
      "type": "function"
    },
    {
      "inputs": [
        {
          "internalType": "address",
          "name": "_add",
          "type": "address"
        },
        {
          "internalType": "string",
          "name": "_name",
          "type": "string"
        }
      ],
      "name": "GovernmentRegister",
      "outputs": [],
      "stateMutability": "nonpayable",
      "type": "function"
    },
    {
      "inputs": [
        {
          "internalType": "string",
          "name": "_name",
          "type": "string"
        },
        {
          "internalType": "string",
          "name": "_dept_name",
          "type": "string"
        },
        {
          "internalType": "uint256",
          "name": "_amount",
          "type": "uint256"
        }
      ],
      "name": "OpenContract",
      "outputs": [],
      "stateMutability": "nonpayable",
      "type": "function"
    },
    {
      "inputs": [
        {
          "internalType": "uint256",
          "name": "_id",
          "type": "uint256"
        }
      ],
      "name": "SendInstallment1",
      "outputs": [],
      "stateMutability": "nonpayable",
      "type": "function"
    },
    {
      "inputs": [
        {
          "internalType": "uint256",
          "name": "_id",
          "type": "uint256"
        }
      ],
      "name": "SendInstallment2",
      "outputs": [],
      "stateMutability": "nonpayable",
      "type": "function"
    },
    {
      "inputs": [
        {
          "internalType": "uint256",
          "name": "_id",
          "type": "uint256"
        },
        {
          "internalType": "uint256",
          "name": "_amount",
          "type": "uint256"
        },
        {
          "internalType": "string",
          "name": "_vendor_name",
          "type": "string"
        },
        {
          "internalType": "string",
          "name": "_contract_name",
          "type": "string"
        }
      ],
      "name": "SendToVendor",
      "outputs": [],
      "stateMutability": "nonpayable",
      "type": "function"
    },
    {
      "inputs": [
        {
          "internalType": "string",
          "name": "_name",
          "type": "string"
        },
        {
          "internalType": "uint256",
          "name": "_amount",
          "type": "uint256"
        },
        {
          "internalType": "uint256",
          "name": "_installments",
          "type": "uint256"
        },
        {
          "internalType": "string",
          "name": "_state_name",
          "type": "string"
        },
        {
          "internalType": "string",
          "name": "_dept_name",
          "type": "string"
        }
      ],
      "name": "StartProject",
      "outputs": [],
      "stateMutability": "nonpayable",
      "type": "function"
    },
    {
      "inputs": [
        {
          "internalType": "uint256",
          "name": "_id",
          "type": "uint256"
        }
      ],
      "name": "TrackProject",
      "outputs": [
        {
          "components": [
            {
              "internalType": "uint256",
              "name": "id",
              "type": "uint256"
            },
            {
              "internalType": "string",
              "name": "name",
              "type": "string"
            },
            {
              "internalType": "uint256",
              "name": "amount",
              "type": "uint256"
            },
            {
              "internalType": "uint256",
              "name": "installments",
              "type": "uint256"
            },
            {
              "internalType": "uint256",
              "name": "given",
              "type": "uint256"
            },
            {
              "internalType": "uint256",
              "name": "status",
              "type": "uint256"
            },
            {
              "internalType": "uint256",
              "name": "curr_inst",
              "type": "uint256"
            },
            {
              "internalType": "address",
              "name": "state_add",
              "type": "address"
            },
            {
              "internalType": "string",
              "name": "state_name",
              "type": "string"
            },
            {
              "internalType": "address",
              "name": "department_add",
              "type": "address"
            },
            {
              "internalType": "string",
              "name": "department_name",
              "type": "string"
            },
            {
              "components": [
                {
                  "internalType": "uint256",
                  "name": "project_id",
                  "type": "uint256"
                },
                {
                  "internalType": "uint256",
                  "name": "installment_no",
                  "type": "uint256"
                },
                {
                  "internalType": "uint256",
                  "name": "amount",
                  "type": "uint256"
                },
                {
                  "internalType": "uint256",
                  "name": "time",
                  "type": "uint256"
                },
                {
                  "internalType": "address",
                  "name": "from",
                  "type": "address"
                },
                {
                  "internalType": "string",
                  "name": "from_name",
                  "type": "string"
                },
                {
                  "internalType": "address",
                  "name": "to",
                  "type": "address"
                },
                {
                  "internalType": "string",
                  "name": "to_name",
                  "type": "string"
                }
              ],
              "internalType": "struct Funds.Installment[]",
              "name": "inst",
              "type": "tuple[]"
            },
            {
              "components": [
                {
                  "internalType": "uint256",
                  "name": "project_id",
                  "type": "uint256"
                },
                {
                  "internalType": "string",
                  "name": "contract_name",
                  "type": "string"
                },
                {
                  "internalType": "address",
                  "name": "vendor_add",
                  "type": "address"
                },
                {
                  "internalType": "string",
                  "name": "vendor_name",
                  "type": "string"
                },
                {
                  "internalType": "uint256",
                  "name": "amount",
                  "type": "uint256"
                },
                {
                  "internalType": "uint256",
                  "name": "time",
                  "type": "uint256"
                },
                {
                  "internalType": "address",
                  "name": "from",
                  "type": "address"
                },
                {
                  "internalType": "string",
                  "name": "from_name",
                  "type": "string"
                }
              ],
              "internalType": "struct Funds.VendorPaid[]",
              "name": "vendor",
              "type": "tuple[]"
            }
          ],
          "internalType": "struct Funds.Project",
          "name": "",
          "type": "tuple"
        }
      ],
      "stateMutability": "view",
      "type": "function"
    },
    {
      "inputs": [
        {
          "internalType": "string",
          "name": "_name",
          "type": "string"
        }
      ],
      "name": "VendorCheck",
      "outputs": [
        {
          "internalType": "bool",
          "name": "",
          "type": "bool"
        }
      ],
      "stateMutability": "view",
      "type": "function"
    },
    {
      "inputs": [],
      "name": "VendorLogin",
      "outputs": [
        {
          "internalType": "bool",
          "name": "",
          "type": "bool"
        }
      ],
      "stateMutability": "view",
      "type": "function"
    },
    {
      "inputs": [
        {
          "internalType": "string",
          "name": "_under_name",
          "type": "string"
        },
        {
          "internalType": "address",
          "name": "_add",
          "type": "address"
        },
        {
          "internalType": "string",
          "name": "_name",
          "type": "string"
        }
      ],
      "name": "VendorRegister",
      "outputs": [],
      "stateMutability": "nonpayable",
      "type": "function"
    },
    {
      "inputs": [],
      "name": "balance",
      "outputs": [
        {
          "internalType": "uint256",
          "name": "",
          "type": "uint256"
        }
      ],
      "stateMutability": "view",
      "type": "function"
    },
    {
      "inputs": [],
      "name": "central",
      "outputs": [
        {
          "internalType": "address",
          "name": "",
          "type": "address"
        }
      ],
      "stateMutability": "view",
      "type": "function"
    },
    {
      "inputs": [],
      "name": "getAllProjects",
      "outputs": [
        {
          "components": [
            {
              "internalType": "uint256",
              "name": "id",
              "type": "uint256"
            },
            {
              "internalType": "string",
              "name": "name",
              "type": "string"
            },
            {
              "internalType": "uint256",
              "name": "amount",
              "type": "uint256"
            },
            {
              "internalType": "uint256",
              "name": "installments",
              "type": "uint256"
            },
            {
              "internalType": "uint256",
              "name": "given",
              "type": "uint256"
            },
            {
              "internalType": "uint256",
              "name": "status",
              "type": "uint256"
            },
            {
              "internalType": "uint256",
              "name": "curr_inst",
              "type": "uint256"
            },
            {
              "internalType": "address",
              "name": "state_add",
              "type": "address"
            },
            {
              "internalType": "string",
              "name": "state_name",
              "type": "string"
            },
            {
              "internalType": "address",
              "name": "department_add",
              "type": "address"
            },
            {
              "internalType": "string",
              "name": "department_name",
              "type": "string"
            },
            {
              "components": [
                {
                  "internalType": "uint256",
                  "name": "project_id",
                  "type": "uint256"
                },
                {
                  "internalType": "uint256",
                  "name": "installment_no",
                  "type": "uint256"
                },
                {
                  "internalType": "uint256",
                  "name": "amount",
                  "type": "uint256"
                },
                {
                  "internalType": "uint256",
                  "name": "time",
                  "type": "uint256"
                },
                {
                  "internalType": "address",
                  "name": "from",
                  "type": "address"
                },
                {
                  "internalType": "string",
                  "name": "from_name",
                  "type": "string"
                },
                {
                  "internalType": "address",
                  "name": "to",
                  "type": "address"
                },
                {
                  "internalType": "string",
                  "name": "to_name",
                  "type": "string"
                }
              ],
              "internalType": "struct Funds.Installment[]",
              "name": "inst",
              "type": "tuple[]"
            },
            {
              "components": [
                {
                  "internalType": "uint256",
                  "name": "project_id",
                  "type": "uint256"
                },
                {
                  "internalType": "string",
                  "name": "contract_name",
                  "type": "string"
                },
                {
                  "internalType": "address",
                  "name": "vendor_add",
                  "type": "address"
                },
                {
                  "internalType": "string",
                  "name": "vendor_name",
                  "type": "string"
                },
                {
                  "internalType": "uint256",
                  "name": "amount",
                  "type": "uint256"
                },
                {
                  "internalType": "uint256",
                  "name": "time",
                  "type": "uint256"
                },
                {
                  "internalType": "address",
                  "name": "from",
                  "type": "address"
                },
                {
                  "internalType": "string",
                  "name": "from_name",
                  "type": "string"
                }
              ],
              "internalType": "struct Funds.VendorPaid[]",
              "name": "vendor",
              "type": "tuple[]"
            }
          ],
          "internalType": "struct Funds.Project[]",
          "name": "",
          "type": "tuple[]"
        }
      ],
      "stateMutability": "view",
      "type": "function"
    },
    {
      "inputs": [],
      "name": "getContracts",
      "outputs": [
        {
          "components": [
            {
              "internalType": "string",
              "name": "name",
              "type": "string"
            },
            {
              "internalType": "address",
              "name": "dept_add",
              "type": "address"
            },
            {
              "internalType": "string",
              "name": "dept_name",
              "type": "string"
            },
            {
              "internalType": "uint256",
              "name": "status",
              "type": "uint256"
            },
            {
              "internalType": "uint256",
              "name": "amount",
              "type": "uint256"
            }
          ],
          "internalType": "struct Funds.Contract[]",
          "name": "",
          "type": "tuple[]"
        }
      ],
      "stateMutability": "view",
      "type": "function"
    },
    {
      "inputs": [],
      "name": "getProjectCount",
      "outputs": [
        {
          "internalType": "uint256",
          "name": "",
          "type": "uint256"
        }
      ],
      "stateMutability": "view",
      "type": "function"
    },
    {
      "inputs": [],
      "name": "getStateProjects",
      "outputs": [
        {
          "components": [
            {
              "internalType": "uint256",
              "name": "id",
              "type": "uint256"
            },
            {
              "internalType": "string",
              "name": "name",
              "type": "string"
            },
            {
              "internalType": "uint256",
              "name": "amount",
              "type": "uint256"
            },
            {
              "internalType": "uint256",
              "name": "installments",
              "type": "uint256"
            },
            {
              "internalType": "uint256",
              "name": "given",
              "type": "uint256"
            },
            {
              "internalType": "uint256",
              "name": "status",
              "type": "uint256"
            },
            {
              "internalType": "uint256",
              "name": "curr_inst",
              "type": "uint256"
            },
            {
              "internalType": "address",
              "name": "state_add",
              "type": "address"
            },
            {
              "internalType": "string",
              "name": "state_name",
              "type": "string"
            },
            {
              "internalType": "address",
              "name": "department_add",
              "type": "address"
            },
            {
              "internalType": "string",
              "name": "department_name",
              "type": "string"
            },
            {
              "components": [
                {
                  "internalType": "uint256",
                  "name": "project_id",
                  "type": "uint256"
                },
                {
                  "internalType": "uint256",
                  "name": "installment_no",
                  "type": "uint256"
                },
                {
                  "internalType": "uint256",
                  "name": "amount",
                  "type": "uint256"
                },
                {
                  "internalType": "uint256",
                  "name": "time",
                  "type": "uint256"
                },
                {
                  "internalType": "address",
                  "name": "from",
                  "type": "address"
                },
                {
                  "internalType": "string",
                  "name": "from_name",
                  "type": "string"
                },
                {
                  "internalType": "address",
                  "name": "to",
                  "type": "address"
                },
                {
                  "internalType": "string",
                  "name": "to_name",
                  "type": "string"
                }
              ],
              "internalType": "struct Funds.Installment[]",
              "name": "inst",
              "type": "tuple[]"
            },
            {
              "components": [
                {
                  "internalType": "uint256",
                  "name": "project_id",
                  "type": "uint256"
                },
                {
                  "internalType": "string",
                  "name": "contract_name",
                  "type": "string"
                },
                {
                  "internalType": "address",
                  "name": "vendor_add",
                  "type": "address"
                },
                {
                  "internalType": "string",
                  "name": "vendor_name",
                  "type": "string"
                },
                {
                  "internalType": "uint256",
                  "name": "amount",
                  "type": "uint256"
                },
                {
                  "internalType": "uint256",
                  "name": "time",
                  "type": "uint256"
                },
                {
                  "internalType": "address",
                  "name": "from",
                  "type": "address"
                },
                {
                  "internalType": "string",
                  "name": "from_name",
                  "type": "string"
                }
              ],
              "internalType": "struct Funds.VendorPaid[]",
              "name": "vendor",
              "type": "tuple[]"
            }
          ],
          "internalType": "struct Funds.Project[]",
          "name": "",
          "type": "tuple[]"
        }
      ],
      "stateMutability": "view",
      "type": "function"
    },
    {
      "inputs": [
        {
          "internalType": "uint256",
          "name": "",
          "type": "uint256"
        }
      ],
      "name": "projects",
      "outputs": [
        {
          "internalType": "uint256",
          "name": "id",
          "type": "uint256"
        },
        {
          "internalType": "string",
          "name": "name",
          "type": "string"
        },
        {
          "internalType": "uint256",
          "name": "amount",
          "type": "uint256"
        },
        {
          "internalType": "uint256",
          "name": "installments",
          "type": "uint256"
        },
        {
          "internalType": "uint256",
          "name": "given",
          "type": "uint256"
        },
        {
          "internalType": "uint256",
          "name": "status",
          "type": "uint256"
        },
        {
          "internalType": "uint256",
          "name": "curr_inst",
          "type": "uint256"
        },
        {
          "internalType": "address",
          "name": "state_add",
          "type": "address"
        },
        {
          "internalType": "string",
          "name": "state_name",
          "type": "string"
        },
        {
          "internalType": "address",
          "name": "department_add",
          "type": "address"
        },
        {
          "internalType": "string",
          "name": "department_name",
          "type": "string"
        }
      ],
      "stateMutability": "view",
      "type": "function"
    },
    {
      "inputs": [],
      "name": "spend",
      "outputs": [
        {
          "internalType": "uint256",
          "name": "",
          "type": "uint256"
        }
      ],
      "stateMutability": "view",
      "type": "function"
    }
  ],
  "bytecode": "0x608060405234801561001057600080fd5b50336000806101000a81548173ffffffffffffffffffffffffffffffffffffffff021916908373ffffffffffffffffffffffffffffffffffffffff160217905550600060018190555060006002819055506000600381905550615e6280620000796000396000f3fe608060405234801561001057600080fd5b50600436106101c45760003560e01c806385c1ca99116100f9578063c3a2a93a11610097578063d8fbd7c411610071578063d8fbd7c4146104d9578063e2c358e614610509578063f7a7b7e214610527578063f8f8a91214610543576101c4565b8063c3a2a93a14610483578063ce032f56146104a1578063cfe0b202146104bd576101c4565b80639dc0a639116100d35780639dc0a6391461040d578063b2048cd114610429578063b69ef8a814610447578063b7826af814610465576101c4565b806385c1ca99146103a357806397a7d098146103c15780639c5d45b7146103dd576101c4565b806339a35f601161016657806347ed67781161014057806347ed67781461031d57806362cb312b14610339578063789d531e1461036957806380d0382914610385576101c4565b806339a35f60146102c35780633bcff3b0146102e157806345615bcc146102ff576101c4565b806328be053a116101a257806328be053a14610251578063357b9deb1461026d57806335a629f314610289578063393f0150146102a5576101c4565b80630a6a6cc3146101c9578063107046bd146101e7578063229cb2a914610221575b600080fd5b6101d1610561565b6040516101de91906158a1565b60405180910390f35b61020160048036038101906101fc9190614f6b565b61063e565b6040516102189b9a999897969594939291906158f9565b60405180910390f35b61023b60048036038101906102369190614d6d565b610870565b60405161024891906158a1565b60405180910390f35b61026b60048036038101906102669190614e2d565b6109f8565b005b61028760048036038101906102829190614eac565b610afd565b005b6102a3600480360381019061029e9190614f6b565b610f9a565b005b6102ad611567565b6040516102ba919061587f565b60405180910390f35b6102cb611ffa565b6040516102d891906158de565b60405180910390f35b6102e9612004565b6040516102f691906158de565b60405180910390f35b61030761200e565b60405161031491906158de565b60405180910390f35b61033760048036038101906103329190614f6b565b612014565b005b610353600480360381019061034e9190614d6d565b612510565b60405161036091906158a1565b60405180910390f35b610383600480360381019061037e9190614f94565b612698565b005b61038d612c68565b60405161039a919061587f565b60405180910390f35b6103ab61354b565b6040516103b891906158a1565b60405180910390f35b6103db60048036038101906103d69190614dae565b613628565b005b6103f760048036038101906103f29190614d6d565b6137f5565b60405161040491906158a1565b60405180910390f35b61042760048036038101906104229190614d19565b61397d565b005b610431613aa4565b60405161043e91906158a1565b60405180910390f35b61044f613b81565b60405161045c91906158de565b60405180910390f35b61046d613b87565b60405161047a9190615842565b60405180910390f35b61048b613bab565b604051610498919061585d565b60405180910390f35b6104bb60048036038101906104b69190614f6b565b614001565b005b6104d760048036038101906104d29190614f6b565b614018565b005b6104f360048036038101906104ee9190614f6b565b614053565b60405161050091906158bc565b60405180910390f35b610511614857565b60405161051e91906158a1565b60405180910390f35b610541600480360381019061053c9190614dae565b6148bf565b005b61054b614a06565b60405161055891906158de565b60405180910390f35b600080600680549050905060005b81811015610634573373ffffffffffffffffffffffffffffffffffffffff16600682815481106105c8577f4e487b7100000000000000000000000000000000000000000000000000000000600052603260045260246000fd5b906000526020600020906004020160020160009054906101000a900473ffffffffffffffffffffffffffffffffffffffff1673ffffffffffffffffffffffffffffffffffffffff1614156106215760019250505061063b565b808061062c90615ce8565b91505061056f565b5060009150505b90565b600860205280600052604060002060009150905080600001549080600101805461066790615c85565b80601f016020809104026020016040519081016040528092919081815260200182805461069390615c85565b80156106e05780601f106106b5576101008083540402835291602001916106e0565b820191906000526020600020905b8154815290600101906020018083116106c357829003601f168201915b5050505050908060020154908060030154908060040154908060050154908060060154908060070160009054906101000a900473ffffffffffffffffffffffffffffffffffffffff169080600801805461073990615c85565b80601f016020809104026020016040519081016040528092919081815260200182805461076590615c85565b80156107b25780601f10610787576101008083540402835291602001916107b2565b820191906000526020600020905b81548152906001019060200180831161079557829003601f168201915b5050505050908060090160009054906101000a900473ffffffffffffffffffffffffffffffffffffffff169080600a0180546107ed90615c85565b80601f016020809104026020016040519081016040528092919081815260200182805461081990615c85565b80156108665780601f1061083b57610100808354040283529160200191610866565b820191906000526020600020905b81548152906001019060200180831161084957829003601f168201915b505050505090508b565b600080600680549050905060005b818110156109ec57836040516020016108979190615814565b60405160208183030381529060405280519060200120600682815481106108e7577f4e487b7100000000000000000000000000000000000000000000000000000000600052603260045260246000fd5b9060005260206000209060040201600301604051602001610908919061582b565b60405160208183030381529060405280519060200120141561092f576000925050506109f3565b60068181548110610969577f4e487b7100000000000000000000000000000000000000000000000000000000600052603260045260246000fd5b906000526020600020906004020160020160009054906101000a900473ffffffffffffffffffffffffffffffffffffffff1673ffffffffffffffffffffffffffffffffffffffff163373ffffffffffffffffffffffffffffffffffffffff1614156109d9576000925050506109f3565b80806109e490615ce8565b91505061087e565b5060019150505b919050565b60076040518060a001604052808581526020013373ffffffffffffffffffffffffffffffffffffffff168152602001848152602001600081526020018381525090806001815401808255809150506001900390600052602060002090600502016000909190919091506000820151816000019080519060200190610a7d929190614a10565b5060208201518160010160006101000a81548173ffffffffffffffffffffffffffffffffffffffff021916908373ffffffffffffffffffffffffffffffffffffffff1602179055506040820151816002019080519060200190610ae1929190614a10565b5060608201518160030155608082015181600401555050505050565b600080600060048054905090506000600580549050905060005b82811015610cb35786604051602001610b309190615814565b6040516020818303038152906040528051906020012060048281548110610b80577f4e487b7100000000000000000000000000000000000000000000000000000000600052603260045260246000fd5b9060005260206000209060050201600101604051602001610ba1919061582b565b604051602081830303815290604052805190602001201415610ca05760048181548110610bf7577f4e487b7100000000000000000000000000000000000000000000000000000000600052603260045260246000fd5b906000526020600020906005020160000160009054906101000a900473ffffffffffffffffffffffffffffffffffffffff16945060048181548110610c65577f4e487b7100000000000000000000000000000000000000000000000000000000600052603260045260246000fd5b906000526020600020906005020160040160035490806001815401808255809150506001900390600052602060002001600090919091909150555b8080610cab90615ce8565b915050610b17565b5060005b81811015610e535785604051602001610cd09190615814565b6040516020818303038152906040528051906020012060058281548110610d20577f4e487b7100000000000000000000000000000000000000000000000000000000600052603260045260246000fd5b9060005260206000209060070201600301604051602001610d41919061582b565b604051602081830303815290604052805190602001201415610e405760058181548110610d97577f4e487b7100000000000000000000000000000000000000000000000000000000600052603260045260246000fd5b906000526020600020906007020160020160009054906101000a900473ffffffffffffffffffffffffffffffffffffffff16935060058181548110610e05577f4e487b7100000000000000000000000000000000000000000000000000000000600052603260045260246000fd5b906000526020600020906007020160060160035490806001815401808255809150506001900390600052602060002001600090919091909150555b8080610e4b90615ce8565b915050610cb7565b506000600860006003548152602001908152602001600020905060035481600001819055506001600354610e879190615b40565b60038190555089816001019080519060200190610ea5929190614a10565b50888160020181905550600081600401819055506000816005018190555060008160060181905550878160030181905550848160070160006101000a81548173ffffffffffffffffffffffffffffffffffffffff021916908373ffffffffffffffffffffffffffffffffffffffff16021790555086816008019080519060200190610f31929190614a10565b508581600a019080519060200190610f4a929190614a10565b50838160090160006101000a81548173ffffffffffffffffffffffffffffffffffffffff021916908373ffffffffffffffffffffffffffffffffffffffff16021790555050505050505050505050565b600060086000838152602001908152602001600020600301546008600084815260200190815260200160002060020154610fd49190615b96565b905060086000838152602001908152602001600020600b01604051806101000160405280848152602001600860008681526020019081526020016000206006015481526020018381526020014281526020016008600086815260200190815260200160002060070160009054906101000a900473ffffffffffffffffffffffffffffffffffffffff1673ffffffffffffffffffffffffffffffffffffffff16815260200160086000868152602001908152602001600020600801805461109990615c85565b80601f01602080910402602001604051908101604052809291908181526020018280546110c590615c85565b80156111125780601f106110e757610100808354040283529160200191611112565b820191906000526020600020905b8154815290600101906020018083116110f557829003601f168201915b505050505081526020016008600086815260200190815260200160002060090160009054906101000a900473ffffffffffffffffffffffffffffffffffffffff1673ffffffffffffffffffffffffffffffffffffffff16815260200160086000868152602001908152602001600020600a01805461118f90615c85565b80601f01602080910402602001604051908101604052809291908181526020018280546111bb90615c85565b80156112085780601f106111dd57610100808354040283529160200191611208565b820191906000526020600020905b8154815290600101906020018083116111eb57829003601f168201915b505050505081525090806001815401808255809150506001900390600052602060002090600802016000909190919091506000820151816000015560208201518160010155604082015181600201556060820151816003015560808201518160040160006101000a81548173ffffffffffffffffffffffffffffffffffffffff021916908373ffffffffffffffffffffffffffffffffffffffff16021790555060a08201518160050190805190602001906112c4929190614a10565b5060c08201518160060160006101000a81548173ffffffffffffffffffffffffffffffffffffffff021916908373ffffffffffffffffffffffffffffffffffffffff16021790555060e0820151816007019080519060200190611328929190614a10565b5050506001600860008481526020019081526020016000206006015461134e9190615b40565b60086000848152602001908152602001600020600601819055506008600083815260200190815260200160002060030154600860008481526020019081526020016000206006015411156113b957600260086000848152602001908152602001600020600501819055505b6000600580549050905060005b81811015611561576008600085815260200190815260200160002060090160009054906101000a900473ffffffffffffffffffffffffffffffffffffffff1673ffffffffffffffffffffffffffffffffffffffff1660058281548110611455577f4e487b7100000000000000000000000000000000000000000000000000000000600052603260045260246000fd5b906000526020600020906007020160020160009054906101000a900473ffffffffffffffffffffffffffffffffffffffff1673ffffffffffffffffffffffffffffffffffffffff16141561154e5782600582815481106114de577f4e487b7100000000000000000000000000000000000000000000000000000000600052603260045260246000fd5b9060005260206000209060070201600401546114fa9190615b40565b60058281548110611534577f4e487b7100000000000000000000000000000000000000000000000000000000600052603260045260246000fd5b906000526020600020906007020160040181905550611561565b808061155990615ce8565b9150506113c6565b50505050565b60606000600480549050905060008060005b8381101561168c573373ffffffffffffffffffffffffffffffffffffffff16600482815481106115d2577f4e487b7100000000000000000000000000000000000000000000000000000000600052603260045260246000fd5b906000526020600020906005020160000160009054906101000a900473ffffffffffffffffffffffffffffffffffffffff1673ffffffffffffffffffffffffffffffffffffffff161415611679576004818154811061165a577f4e487b7100000000000000000000000000000000000000000000000000000000600052603260045260246000fd5b906000526020600020906005020160040180549050925080915061168c565b808061168490615ce8565b915050611579565b5060008267ffffffffffffffff8111156116cf577f4e487b7100000000000000000000000000000000000000000000000000000000600052604160045260246000fd5b60405190808252806020026020018201604052801561170857816020015b6116f5614a96565b8152602001906001900390816116ed5790505b50905060005b83811015611fef576008600060048581548110611754577f4e487b7100000000000000000000000000000000000000000000000000000000600052603260045260246000fd5b9060005260206000209060050201600401838154811061179d577f4e487b7100000000000000000000000000000000000000000000000000000000600052603260045260246000fd5b90600052602060002001548152602001908152602001600020604051806101a0016040529081600082015481526020016001820180546117dc90615c85565b80601f016020809104026020016040519081016040528092919081815260200182805461180890615c85565b80156118555780601f1061182a57610100808354040283529160200191611855565b820191906000526020600020905b81548152906001019060200180831161183857829003601f168201915b5050505050815260200160028201548152602001600382015481526020016004820154815260200160058201548152602001600682015481526020016007820160009054906101000a900473ffffffffffffffffffffffffffffffffffffffff1673ffffffffffffffffffffffffffffffffffffffff1673ffffffffffffffffffffffffffffffffffffffff1681526020016008820180546118f690615c85565b80601f016020809104026020016040519081016040528092919081815260200182805461192290615c85565b801561196f5780601f106119445761010080835404028352916020019161196f565b820191906000526020600020905b81548152906001019060200180831161195257829003601f168201915b505050505081526020016009820160009054906101000a900473ffffffffffffffffffffffffffffffffffffffff1673ffffffffffffffffffffffffffffffffffffffff1673ffffffffffffffffffffffffffffffffffffffff168152602001600a820180546119de90615c85565b80601f0160208091040260200160405190810160405280929190818152602001828054611a0a90615c85565b8015611a575780601f10611a2c57610100808354040283529160200191611a57565b820191906000526020600020905b815481529060010190602001808311611a3a57829003601f168201915b50505050508152602001600b8201805480602002602001604051908101604052809291908181526020016000905b82821015611cb0578382906000526020600020906008020160405180610100016040529081600082015481526020016001820154815260200160028201548152602001600382015481526020016004820160009054906101000a900473ffffffffffffffffffffffffffffffffffffffff1673ffffffffffffffffffffffffffffffffffffffff1673ffffffffffffffffffffffffffffffffffffffff168152602001600582018054611b3790615c85565b80601f0160208091040260200160405190810160405280929190818152602001828054611b6390615c85565b8015611bb05780601f10611b8557610100808354040283529160200191611bb0565b820191906000526020600020905b815481529060010190602001808311611b9357829003601f168201915b505050505081526020016006820160009054906101000a900473ffffffffffffffffffffffffffffffffffffffff1673ffffffffffffffffffffffffffffffffffffffff1673ffffffffffffffffffffffffffffffffffffffff168152602001600782018054611c1f90615c85565b80601f0160208091040260200160405190810160405280929190818152602001828054611c4b90615c85565b8015611c985780601f10611c6d57610100808354040283529160200191611c98565b820191906000526020600020905b815481529060010190602001808311611c7b57829003601f168201915b50505050508152505081526020019060010190611a85565b505050508152602001600c8201805480602002602001604051908101604052809291908181526020016000905b82821015611f9057838290600052602060002090600802016040518061010001604052908160008201548152602001600182018054611d1b90615c85565b80601f0160208091040260200160405190810160405280929190818152602001828054611d4790615c85565b8015611d945780601f10611d6957610100808354040283529160200191611d94565b820191906000526020600020905b815481529060010190602001808311611d7757829003601f168201915b505050505081526020016002820160009054906101000a900473ffffffffffffffffffffffffffffffffffffffff1673ffffffffffffffffffffffffffffffffffffffff1673ffffffffffffffffffffffffffffffffffffffff168152602001600382018054611e0390615c85565b80601f0160208091040260200160405190810160405280929190818152602001828054611e2f90615c85565b8015611e7c5780601f10611e5157610100808354040283529160200191611e7c565b820191906000526020600020905b815481529060010190602001808311611e5f57829003601f168201915b5050505050815260200160048201548152602001600582015481526020016006820160009054906101000a900473ffffffffffffffffffffffffffffffffffffffff1673ffffffffffffffffffffffffffffffffffffffff1673ffffffffffffffffffffffffffffffffffffffff168152602001600782018054611eff90615c85565b80601f0160208091040260200160405190810160405280929190818152602001828054611f2b90615c85565b8015611f785780601f10611f4d57610100808354040283529160200191611f78565b820191906000526020600020905b815481529060010190602001808311611f5b57829003601f168201915b50505050508152505081526020019060010190611cdd565b5050505081525050828281518110611fd1577f4e487b7100000000000000000000000000000000000000000000000000000000600052603260045260246000fd5b60200260200101819052508080611fe790615ce8565b91505061170e565b508094505050505090565b6000600254905090565b6000600354905090565b60025481565b60006008600083815260200190815260200160002060030154600860008481526020019081526020016000206002015461204e9190615b96565b90508060086000848152602001908152602001600020600401546120729190615b40565b600860008481526020019081526020016000206004018190555060086000838152602001908152602001600020600b016040518061010001604052808481526020016008600086815260200190815260200160002060060154815260200183815260200142815260200160008054906101000a900473ffffffffffffffffffffffffffffffffffffffff1673ffffffffffffffffffffffffffffffffffffffff1681526020016040518060400160405280600781526020017f43656e7472616c0000000000000000000000000000000000000000000000000081525081526020016008600086815260200190815260200160002060070160009054906101000a900473ffffffffffffffffffffffffffffffffffffffff1673ffffffffffffffffffffffffffffffffffffffff1681526020016008600086815260200190815260200160002060080180546121c690615c85565b80601f01602080910402602001604051908101604052809291908181526020018280546121f290615c85565b801561223f5780601f106122145761010080835404028352916020019161223f565b820191906000526020600020905b81548152906001019060200180831161222257829003601f168201915b505050505081525090806001815401808255809150506001900390600052602060002090600802016000909190919091506000820151816000015560208201518160010155604082015181600201556060820151816003015560808201518160040160006101000a81548173ffffffffffffffffffffffffffffffffffffffff021916908373ffffffffffffffffffffffffffffffffffffffff16021790555060a08201518160050190805190602001906122fb929190614a10565b5060c08201518160060160006101000a81548173ffffffffffffffffffffffffffffffffffffffff021916908373ffffffffffffffffffffffffffffffffffffffff16021790555060e082015181600701908051906020019061235f929190614a10565b5050506000600480549050905060005b8181101561250a576008600085815260200190815260200160002060070160009054906101000a900473ffffffffffffffffffffffffffffffffffffffff1673ffffffffffffffffffffffffffffffffffffffff16600482815481106123fe577f4e487b7100000000000000000000000000000000000000000000000000000000600052603260045260246000fd5b906000526020600020906005020160000160009054906101000a900473ffffffffffffffffffffffffffffffffffffffff1673ffffffffffffffffffffffffffffffffffffffff1614156124f7578260048281548110612487577f4e487b7100000000000000000000000000000000000000000000000000000000600052603260045260246000fd5b9060005260206000209060050201600201546124a39190615b40565b600482815481106124dd577f4e487b7100000000000000000000000000000000000000000000000000000000600052603260045260246000fd5b90600052602060002090600502016002018190555061250a565b808061250290615ce8565b91505061236f565b50505050565b600080600480549050905060005b8181101561268c57836040516020016125379190615814565b6040516020818303038152906040528051906020012060048281548110612587577f4e487b7100000000000000000000000000000000000000000000000000000000600052603260045260246000fd5b90600052602060002090600502016001016040516020016125a8919061582b565b6040516020818303038152906040528051906020012014156125cf57600092505050612693565b60048181548110612609577f4e487b7100000000000000000000000000000000000000000000000000000000600052603260045260246000fd5b906000526020600020906005020160000160009054906101000a900473ffffffffffffffffffffffffffffffffffffffff1673ffffffffffffffffffffffffffffffffffffffff163373ffffffffffffffffffffffffffffffffffffffff16141561267957600092505050612693565b808061268490615ce8565b91505061251e565b5060019150505b919050565b6000600580549050905060008080600090505b838110156127f1576008600089815260200190815260200160002060090160009054906101000a900473ffffffffffffffffffffffffffffffffffffffff1673ffffffffffffffffffffffffffffffffffffffff166005828154811061273a577f4e487b7100000000000000000000000000000000000000000000000000000000600052603260045260246000fd5b906000526020600020906007020160020160009054906101000a900473ffffffffffffffffffffffffffffffffffffffff1673ffffffffffffffffffffffffffffffffffffffff1614156127de57600581815481106127c2577f4e487b7100000000000000000000000000000000000000000000000000000000600052603260045260246000fd5b90600052602060002090600702016004015492508091506127f1565b80806127e990615ce8565b9150506126ab565b50858210612c5f578560058281548110612834577f4e487b7100000000000000000000000000000000000000000000000000000000600052603260045260246000fd5b9060005260206000209060070201600401546128509190615bc7565b6005828154811061288a577f4e487b7100000000000000000000000000000000000000000000000000000000600052603260045260246000fd5b90600052602060002090600702016004018190555060006006805490509050600080600090505b828110156129dd57876040516020016128ca9190615814565b604051602081830303815290604052805190602001206006828154811061291a577f4e487b7100000000000000000000000000000000000000000000000000000000600052603260045260246000fd5b906000526020600020906004020160030160405160200161293b919061582b565b6040516020818303038152906040528051906020012014156129ca5760068181548110612991577f4e487b7100000000000000000000000000000000000000000000000000000000600052603260045260246000fd5b906000526020600020906004020160020160009054906101000a900473ffffffffffffffffffffffffffffffffffffffff1691506129dd565b80806129d590615ce8565b9150506128b1565b50600860008a8152602001908152602001600020600c016040518061010001604052808b81526020018881526020018373ffffffffffffffffffffffffffffffffffffffff1681526020018981526020018a8152602001428152602001600860008d815260200190815260200160002060090160009054906101000a900473ffffffffffffffffffffffffffffffffffffffff1673ffffffffffffffffffffffffffffffffffffffff168152602001600860008d8152602001908152602001600020600a018054612aad90615c85565b80601f0160208091040260200160405190810160405280929190818152602001828054612ad990615c85565b8015612b265780601f10612afb57610100808354040283529160200191612b26565b820191906000526020600020905b815481529060010190602001808311612b0957829003601f168201915b50505050508152509080600181540180825580915050600190039060005260206000209060080201600090919091909150600082015181600001556020820151816001019080519060200190612b7d929190614a10565b5060408201518160020160006101000a81548173ffffffffffffffffffffffffffffffffffffffff021916908373ffffffffffffffffffffffffffffffffffffffff1602179055506060820151816003019080519060200190612be1929190614a10565b506080820151816004015560a0820151816005015560c08201518160060160006101000a81548173ffffffffffffffffffffffffffffffffffffffff021916908373ffffffffffffffffffffffffffffffffffffffff16021790555060e0820151816007019080519060200190612c59929190614a10565b50505050505b50505050505050565b6060600060035467ffffffffffffffff811115612cae577f4e487b7100000000000000000000000000000000000000000000000000000000600052604160045260246000fd5b604051908082528060200260200182016040528015612ce757816020015b612cd4614a96565b815260200190600190039081612ccc5790505b50905060005b6003548110156135435760086000828152602001908152602001600020604051806101a001604052908160008201548152602001600182018054612d3090615c85565b80601f0160208091040260200160405190810160405280929190818152602001828054612d5c90615c85565b8015612da95780601f10612d7e57610100808354040283529160200191612da9565b820191906000526020600020905b815481529060010190602001808311612d8c57829003601f168201915b5050505050815260200160028201548152602001600382015481526020016004820154815260200160058201548152602001600682015481526020016007820160009054906101000a900473ffffffffffffffffffffffffffffffffffffffff1673ffffffffffffffffffffffffffffffffffffffff1673ffffffffffffffffffffffffffffffffffffffff168152602001600882018054612e4a90615c85565b80601f0160208091040260200160405190810160405280929190818152602001828054612e7690615c85565b8015612ec35780601f10612e9857610100808354040283529160200191612ec3565b820191906000526020600020905b815481529060010190602001808311612ea657829003601f168201915b505050505081526020016009820160009054906101000a900473ffffffffffffffffffffffffffffffffffffffff1673ffffffffffffffffffffffffffffffffffffffff1673ffffffffffffffffffffffffffffffffffffffff168152602001600a82018054612f3290615c85565b80601f0160208091040260200160405190810160405280929190818152602001828054612f5e90615c85565b8015612fab5780601f10612f8057610100808354040283529160200191612fab565b820191906000526020600020905b815481529060010190602001808311612f8e57829003601f168201915b50505050508152602001600b8201805480602002602001604051908101604052809291908181526020016000905b82821015613204578382906000526020600020906008020160405180610100016040529081600082015481526020016001820154815260200160028201548152602001600382015481526020016004820160009054906101000a900473ffffffffffffffffffffffffffffffffffffffff1673ffffffffffffffffffffffffffffffffffffffff1673ffffffffffffffffffffffffffffffffffffffff16815260200160058201805461308b90615c85565b80601f01602080910402602001604051908101604052809291908181526020018280546130b790615c85565b80156131045780601f106130d957610100808354040283529160200191613104565b820191906000526020600020905b8154815290600101906020018083116130e757829003601f168201915b505050505081526020016006820160009054906101000a900473ffffffffffffffffffffffffffffffffffffffff1673ffffffffffffffffffffffffffffffffffffffff1673ffffffffffffffffffffffffffffffffffffffff16815260200160078201805461317390615c85565b80601f016020809104026020016040519081016040528092919081815260200182805461319f90615c85565b80156131ec5780601f106131c1576101008083540402835291602001916131ec565b820191906000526020600020905b8154815290600101906020018083116131cf57829003601f168201915b50505050508152505081526020019060010190612fd9565b505050508152602001600c8201805480602002602001604051908101604052809291908181526020016000905b828210156134e45783829060005260206000209060080201604051806101000160405290816000820154815260200160018201805461326f90615c85565b80601f016020809104026020016040519081016040528092919081815260200182805461329b90615c85565b80156132e85780601f106132bd576101008083540402835291602001916132e8565b820191906000526020600020905b8154815290600101906020018083116132cb57829003601f168201915b505050505081526020016002820160009054906101000a900473ffffffffffffffffffffffffffffffffffffffff1673ffffffffffffffffffffffffffffffffffffffff1673ffffffffffffffffffffffffffffffffffffffff16815260200160038201805461335790615c85565b80601f016020809104026020016040519081016040528092919081815260200182805461338390615c85565b80156133d05780601f106133a5576101008083540402835291602001916133d0565b820191906000526020600020905b8154815290600101906020018083116133b357829003601f168201915b5050505050815260200160048201548152602001600582015481526020016006820160009054906101000a900473ffffffffffffffffffffffffffffffffffffffff1673ffffffffffffffffffffffffffffffffffffffff1673ffffffffffffffffffffffffffffffffffffffff16815260200160078201805461345390615c85565b80601f016020809104026020016040519081016040528092919081815260200182805461347f90615c85565b80156134cc5780601f106134a1576101008083540402835291602001916134cc565b820191906000526020600020905b8154815290600101906020018083116134af57829003601f168201915b50505050508152505081526020019060010190613231565b5050505081525050828281518110613525577f4e487b7100000000000000000000000000000000000000000000000000000000600052603260045260246000fd5b6020026020010181905250808061353b90615ce8565b915050612ced565b508091505090565b600080600580549050905060005b8181101561361e573373ffffffffffffffffffffffffffffffffffffffff16600582815481106135b2577f4e487b7100000000000000000000000000000000000000000000000000000000600052603260045260246000fd5b906000526020600020906007020160020160009054906101000a900473ffffffffffffffffffffffffffffffffffffffff1673ffffffffffffffffffffffffffffffffffffffff16141561360b57600192505050613625565b808061361690615ce8565b915050613559565b5060009150505b90565b613630614b2a565b33816000019073ffffffffffffffffffffffffffffffffffffffff16908173ffffffffffffffffffffffffffffffffffffffff168152505083816020018190525082816040019073ffffffffffffffffffffffffffffffffffffffff16908173ffffffffffffffffffffffffffffffffffffffff1681525050818160600181905250600081608001818152505060008160a0018181525050600581908060018154018082558091505060019003906000526020600020906007020160009091909190915060008201518160000160006101000a81548173ffffffffffffffffffffffffffffffffffffffff021916908373ffffffffffffffffffffffffffffffffffffffff1602179055506020820151816001019080519060200190613757929190614a10565b5060408201518160020160006101000a81548173ffffffffffffffffffffffffffffffffffffffff021916908373ffffffffffffffffffffffffffffffffffffffff16021790555060608201518160030190805190602001906137bb929190614a10565b506080820151816004015560a0820151816005015560c08201518160060190805190602001906137ec929190614b93565b50505050505050565b600080600580549050905060005b81811015613971578360405160200161381c9190615814565b604051602081830303815290604052805190602001206005828154811061386c577f4e487b7100000000000000000000000000000000000000000000000000000000600052603260045260246000fd5b906000526020600020906007020160030160405160200161388d919061582b565b6040516020818303038152906040528051906020012014156138b457600092505050613978565b600581815481106138ee577f4e487b7100000000000000000000000000000000000000000000000000000000600052603260045260246000fd5b906000526020600020906007020160020160009054906101000a900473ffffffffffffffffffffffffffffffffffffffff1673ffffffffffffffffffffffffffffffffffffffff163373ffffffffffffffffffffffffffffffffffffffff16141561395e57600092505050613978565b808061396990615ce8565b915050613803565b5060019150505b919050565b613985614be0565b82816000019073ffffffffffffffffffffffffffffffffffffffff16908173ffffffffffffffffffffffffffffffffffffffff168152505081816020018190525060008160400181815250506000816060018181525050600481908060018154018082558091505060019003906000526020600020906005020160009091909190915060008201518160000160006101000a81548173ffffffffffffffffffffffffffffffffffffffff021916908373ffffffffffffffffffffffffffffffffffffffff1602179055506020820151816001019080519060200190613a6b929190614a10565b5060408201518160020155606082015181600301556080820151816004019080519060200190613a9c929190614b93565b505050505050565b600080600480549050905060005b81811015613b77573373ffffffffffffffffffffffffffffffffffffffff1660048281548110613b0b577f4e487b7100000000000000000000000000000000000000000000000000000000600052603260045260246000fd5b906000526020600020906005020160000160009054906101000a900473ffffffffffffffffffffffffffffffffffffffff1673ffffffffffffffffffffffffffffffffffffffff161415613b6457600192505050613b7e565b8080613b6f90615ce8565b915050613ab2565b5060009150505b90565b60015481565b60008054906101000a900473ffffffffffffffffffffffffffffffffffffffff1681565b6060600060078054905090506000805b82811015613c845760078181548110613bfd577f4e487b7100000000000000000000000000000000000000000000000000000000600052603260045260246000fd5b906000526020600020906005020160010160009054906101000a900473ffffffffffffffffffffffffffffffffffffffff1673ffffffffffffffffffffffffffffffffffffffff163373ffffffffffffffffffffffffffffffffffffffff161415613c71578180613c6d90615ce8565b9250505b8080613c7c90615ce8565b915050613bbb565b5060008167ffffffffffffffff811115613cc7577f4e487b7100000000000000000000000000000000000000000000000000000000600052604160045260246000fd5b604051908082528060200260200182016040528015613d0057816020015b613ced614c25565b815260200190600190039081613ce55790505b5090506000805b84811015613ff65760078181548110613d49577f4e487b7100000000000000000000000000000000000000000000000000000000600052603260045260246000fd5b906000526020600020906005020160010160009054906101000a900473ffffffffffffffffffffffffffffffffffffffff1673ffffffffffffffffffffffffffffffffffffffff163373ffffffffffffffffffffffffffffffffffffffff161415613fe35760078181548110613de8577f4e487b7100000000000000000000000000000000000000000000000000000000600052603260045260246000fd5b90600052602060002090600502016040518060a0016040529081600082018054613e1190615c85565b80601f0160208091040260200160405190810160405280929190818152602001828054613e3d90615c85565b8015613e8a5780601f10613e5f57610100808354040283529160200191613e8a565b820191906000526020600020905b815481529060010190602001808311613e6d57829003601f168201915b505050505081526020016001820160009054906101000a900473ffffffffffffffffffffffffffffffffffffffff1673ffffffffffffffffffffffffffffffffffffffff1673ffffffffffffffffffffffffffffffffffffffff168152602001600282018054613ef990615c85565b80601f0160208091040260200160405190810160405280929190818152602001828054613f2590615c85565b8015613f725780601f10613f4757610100808354040283529160200191613f72565b820191906000526020600020905b815481529060010190602001808311613f5557829003601f168201915b5050505050815260200160038201548152602001600482015481525050838381518110613fc8577f4e487b7100000000000000000000000000000000000000000000000000000000600052603260045260246000fd5b6020026020010181905250600182613fe09190615b40565b91505b8080613fee90615ce8565b915050613d07565b508194505050505090565b8060015461400f9190615b40565b60018190555050565b600160086000838152602001908152602001600020600501819055506001600860008381526020019081526020016000206006018190555050565b61405b614a96565b60086000838152602001908152602001600020604051806101a00160405290816000820154815260200160018201805461409490615c85565b80601f01602080910402602001604051908101604052809291908181526020018280546140c090615c85565b801561410d5780601f106140e25761010080835404028352916020019161410d565b820191906000526020600020905b8154815290600101906020018083116140f057829003601f168201915b5050505050815260200160028201548152602001600382015481526020016004820154815260200160058201548152602001600682015481526020016007820160009054906101000a900473ffffffffffffffffffffffffffffffffffffffff1673ffffffffffffffffffffffffffffffffffffffff1673ffffffffffffffffffffffffffffffffffffffff1681526020016008820180546141ae90615c85565b80601f01602080910402602001604051908101604052809291908181526020018280546141da90615c85565b80156142275780601f106141fc57610100808354040283529160200191614227565b820191906000526020600020905b81548152906001019060200180831161420a57829003601f168201915b505050505081526020016009820160009054906101000a900473ffffffffffffffffffffffffffffffffffffffff1673ffffffffffffffffffffffffffffffffffffffff1673ffffffffffffffffffffffffffffffffffffffff168152602001600a8201805461429690615c85565b80601f01602080910402602001604051908101604052809291908181526020018280546142c290615c85565b801561430f5780601f106142e45761010080835404028352916020019161430f565b820191906000526020600020905b8154815290600101906020018083116142f257829003601f168201915b50505050508152602001600b8201805480602002602001604051908101604052809291908181526020016000905b82821015614568578382906000526020600020906008020160405180610100016040529081600082015481526020016001820154815260200160028201548152602001600382015481526020016004820160009054906101000a900473ffffffffffffffffffffffffffffffffffffffff1673ffffffffffffffffffffffffffffffffffffffff1673ffffffffffffffffffffffffffffffffffffffff1681526020016005820180546143ef90615c85565b80601f016020809104026020016040519081016040528092919081815260200182805461441b90615c85565b80156144685780601f1061443d57610100808354040283529160200191614468565b820191906000526020600020905b81548152906001019060200180831161444b57829003601f168201915b505050505081526020016006820160009054906101000a900473ffffffffffffffffffffffffffffffffffffffff1673ffffffffffffffffffffffffffffffffffffffff1673ffffffffffffffffffffffffffffffffffffffff1681526020016007820180546144d790615c85565b80601f016020809104026020016040519081016040528092919081815260200182805461450390615c85565b80156145505780601f1061452557610100808354040283529160200191614550565b820191906000526020600020905b81548152906001019060200180831161453357829003601f168201915b5050505050815250508152602001906001019061433d565b505050508152602001600c8201805480602002602001604051908101604052809291908181526020016000905b82821015614848578382906000526020600020906008020160405180610100016040529081600082015481526020016001820180546145d390615c85565b80601f01602080910402602001604051908101604052809291908181526020018280546145ff90615c85565b801561464c5780601f106146215761010080835404028352916020019161464c565b820191906000526020600020905b81548152906001019060200180831161462f57829003601f168201915b505050505081526020016002820160009054906101000a900473ffffffffffffffffffffffffffffffffffffffff1673ffffffffffffffffffffffffffffffffffffffff1673ffffffffffffffffffffffffffffffffffffffff1681526020016003820180546146bb90615c85565b80601f01602080910402602001604051908101604052809291908181526020018280546146e790615c85565b80156147345780601f1061470957610100808354040283529160200191614734565b820191906000526020600020905b81548152906001019060200180831161471757829003601f168201915b5050505050815260200160048201548152602001600582015481526020016006820160009054906101000a900473ffffffffffffffffffffffffffffffffffffffff1673ffffffffffffffffffffffffffffffffffffffff1673ffffffffffffffffffffffffffffffffffffffff1681526020016007820180546147b790615c85565b80601f01602080910402602001604051908101604052809291908181526020018280546147e390615c85565b80156148305780601f1061480557610100808354040283529160200191614830565b820191906000526020600020905b81548152906001019060200180831161481357829003601f168201915b50505050508152505081526020019060010190614595565b50505050815250509050919050565b60008060009054906101000a900473ffffffffffffffffffffffffffffffffffffffff1673ffffffffffffffffffffffffffffffffffffffff163373ffffffffffffffffffffffffffffffffffffffff1614156148b757600190506148bc565b600090505b90565b600660405180608001604052803373ffffffffffffffffffffffffffffffffffffffff1681526020018581526020018473ffffffffffffffffffffffffffffffffffffffff16815260200183815250908060018154018082558091505060019003906000526020600020906004020160009091909190915060008201518160000160006101000a81548173ffffffffffffffffffffffffffffffffffffffff021916908373ffffffffffffffffffffffffffffffffffffffff160217905550602082015181600101908051906020019061499a929190614a10565b5060408201518160020160006101000a81548173ffffffffffffffffffffffffffffffffffffffff021916908373ffffffffffffffffffffffffffffffffffffffff16021790555060608201518160030190805190602001906149fe929190614a10565b505050505050565b6000600154905090565b828054614a1c90615c85565b90600052602060002090601f016020900481019282614a3e5760008555614a85565b82601f10614a5757805160ff1916838001178555614a85565b82800160010185558215614a85579182015b82811115614a84578251825591602001919060010190614a69565b5b509050614a929190614c6a565b5090565b604051806101a0016040528060008152602001606081526020016000815260200160008152602001600081526020016000815260200160008152602001600073ffffffffffffffffffffffffffffffffffffffff16815260200160608152602001600073ffffffffffffffffffffffffffffffffffffffff1681526020016060815260200160608152602001606081525090565b6040518060e00160405280600073ffffffffffffffffffffffffffffffffffffffff16815260200160608152602001600073ffffffffffffffffffffffffffffffffffffffff168152602001606081526020016000815260200160008152602001606081525090565b828054828255906000526020600020908101928215614bcf579160200282015b82811115614bce578251825591602001919060010190614bb3565b5b509050614bdc9190614c6a565b5090565b6040518060a00160405280600073ffffffffffffffffffffffffffffffffffffffff168152602001606081526020016000815260200160008152602001606081525090565b6040518060a0016040528060608152602001600073ffffffffffffffffffffffffffffffffffffffff1681526020016060815260200160008152602001600081525090565b5b80821115614c83576000816000905550600101614c6b565b5090565b6000614c9a614c95846159de565b6159b9565b905082815260208101848484011115614cb257600080fd5b614cbd848285615c43565b509392505050565b600081359050614cd481615dfe565b92915050565b600082601f830112614ceb57600080fd5b8135614cfb848260208601614c87565b91505092915050565b600081359050614d1381615e15565b92915050565b60008060408385031215614d2c57600080fd5b6000614d3a85828601614cc5565b925050602083013567ffffffffffffffff811115614d5757600080fd5b614d6385828601614cda565b9150509250929050565b600060208284031215614d7f57600080fd5b600082013567ffffffffffffffff811115614d9957600080fd5b614da584828501614cda565b91505092915050565b600080600060608486031215614dc357600080fd5b600084013567ffffffffffffffff811115614ddd57600080fd5b614de986828701614cda565b9350506020614dfa86828701614cc5565b925050604084013567ffffffffffffffff811115614e1757600080fd5b614e2386828701614cda565b9150509250925092565b600080600060608486031215614e4257600080fd5b600084013567ffffffffffffffff811115614e5c57600080fd5b614e6886828701614cda565b935050602084013567ffffffffffffffff811115614e8557600080fd5b614e9186828701614cda565b9250506040614ea286828701614d04565b9150509250925092565b600080600080600060a08688031215614ec457600080fd5b600086013567ffffffffffffffff811115614ede57600080fd5b614eea88828901614cda565b9550506020614efb88828901614d04565b9450506040614f0c88828901614d04565b935050606086013567ffffffffffffffff811115614f2957600080fd5b614f3588828901614cda565b925050608086013567ffffffffffffffff811115614f5257600080fd5b614f5e88828901614cda565b9150509295509295909350565b600060208284031215614f7d57600080fd5b6000614f8b84828501614d04565b91505092915050565b60008060008060808587031215614faa57600080fd5b6000614fb887828801614d04565b9450506020614fc987828801614d04565b935050604085013567ffffffffffffffff811115614fe657600080fd5b614ff287828801614cda565b925050606085013567ffffffffffffffff81111561500f57600080fd5b61501b87828801614cda565b91505092959194509250565b6000615033838361539a565b905092915050565b60006150478383615417565b905092915050565b600061505b83836154ce565b905092915050565b600061506f8383615738565b905092915050565b61508081615bfb565b82525050565b61508f81615bfb565b82525050565b60006150a082615a64565b6150aa8185615acf565b9350836020820285016150bc85615a0f565b8060005b858110156150f857848403895281516150d98582615027565b94506150e483615a9b565b925060208a019950506001810190506150c0565b50829750879550505050505092915050565b600061511582615a6f565b61511f8185615ae0565b93508360208202850161513185615a1f565b8060005b8581101561516d578484038952815161514e858261503b565b945061515983615aa8565b925060208a01995050600181019050615135565b50829750879550505050505092915050565b600061518a82615a7a565b6151948185615af1565b9350836020820285016151a685615a2f565b8060005b858110156151e257848403895281516151c3858261504f565b94506151ce83615ab5565b925060208a019950506001810190506151aa565b50829750879550505050505092915050565b60006151ff82615a85565b6152098185615b02565b93508360208202850161521b85615a3f565b8060005b8581101561525757848403895281516152388582615063565b945061524383615ac2565b925060208a0199505060018101905061521f565b50829750879550505050505092915050565b61527281615c0d565b82525050565b600061528382615a90565b61528d8185615b13565b935061529d818560208601615c52565b6152a681615ded565b840191505092915050565b60006152bc82615a90565b6152c68185615b24565b93506152d6818560208601615c52565b6152df81615ded565b840191505092915050565b60006152f582615a90565b6152ff8185615b35565b935061530f818560208601615c52565b80840191505092915050565b6000815461532881615c85565b6153328186615b35565b9450600182166000811461534d576001811461535e57615391565b60ff19831686528186019350615391565b61536785615a4f565b60005b838110156153895781548189015260018201915060208101905061536a565b838801955050505b50505092915050565b600060a08301600083015184820360008601526153b78282615278565b91505060208301516153cc6020860182615077565b50604083015184820360408601526153e48282615278565b91505060608301516153f960608601826157f6565b50608083015161540c60808601826157f6565b508091505092915050565b60006101008301600083015161543060008601826157f6565b50602083015161544360208601826157f6565b50604083015161545660408601826157f6565b50606083015161546960608601826157f6565b50608083015161547c6080860182615077565b5060a083015184820360a08601526154948282615278565b91505060c08301516154a960c0860182615077565b5060e083015184820360e08601526154c18282615278565b9150508091505092915050565b60006101a0830160008301516154e760008601826157f6565b50602083015184820360208601526154ff8282615278565b915050604083015161551460408601826157f6565b50606083015161552760608601826157f6565b50608083015161553a60808601826157f6565b5060a083015161554d60a08601826157f6565b5060c083015161556060c08601826157f6565b5060e083015161557360e0860182615077565b5061010083015184820361010086015261558d8282615278565b9150506101208301516155a4610120860182615077565b506101408301518482036101408601526155be8282615278565b9150506101608301518482036101608601526155da828261510a565b9150506101808301518482036101808601526155f682826151f4565b9150508091505092915050565b60006101a08301600083015161561c60008601826157f6565b50602083015184820360208601526156348282615278565b915050604083015161564960408601826157f6565b50606083015161565c60608601826157f6565b50608083015161566f60808601826157f6565b5060a083015161568260a08601826157f6565b5060c083015161569560c08601826157f6565b5060e08301516156a860e0860182615077565b506101008301518482036101008601526156c28282615278565b9150506101208301516156d9610120860182615077565b506101408301518482036101408601526156f38282615278565b91505061016083015184820361016086015261570f828261510a565b91505061018083015184820361018086015261572b82826151f4565b9150508091505092915050565b60006101008301600083015161575160008601826157f6565b50602083015184820360208601526157698282615278565b915050604083015161577e6040860182615077565b50606083015184820360608601526157968282615278565b91505060808301516157ab60808601826157f6565b5060a08301516157be60a08601826157f6565b5060c08301516157d160c0860182615077565b5060e083015184820360e08601526157e98282615278565b9150508091505092915050565b6157ff81615c39565b82525050565b61580e81615c39565b82525050565b600061582082846152ea565b915081905092915050565b6000615837828461531b565b915081905092915050565b60006020820190506158576000830184615086565b92915050565b600060208201905081810360008301526158778184615095565b905092915050565b60006020820190508181036000830152615899818461517f565b905092915050565b60006020820190506158b66000830184615269565b92915050565b600060208201905081810360008301526158d68184615603565b905092915050565b60006020820190506158f36000830184615805565b92915050565b60006101608201905061590f600083018e615805565b8181036020830152615921818d6152b1565b9050615930604083018c615805565b61593d606083018b615805565b61594a608083018a615805565b61595760a0830189615805565b61596460c0830188615805565b61597160e0830187615086565b81810361010083015261598481866152b1565b9050615994610120830185615086565b8181036101408301526159a781846152b1565b90509c9b505050505050505050505050565b60006159c36159d4565b90506159cf8282615cb7565b919050565b6000604051905090565b600067ffffffffffffffff8211156159f9576159f8615dbe565b5b615a0282615ded565b9050602081019050919050565b6000819050602082019050919050565b6000819050602082019050919050565b6000819050602082019050919050565b6000819050602082019050919050565b60008190508160005260206000209050919050565b600081519050919050565b600081519050919050565b600081519050919050565b600081519050919050565b600081519050919050565b6000602082019050919050565b6000602082019050919050565b6000602082019050919050565b6000602082019050919050565b600082825260208201905092915050565b600082825260208201905092915050565b600082825260208201905092915050565b600082825260208201905092915050565b600082825260208201905092915050565b600082825260208201905092915050565b600081905092915050565b6000615b4b82615c39565b9150615b5683615c39565b9250827fffffffffffffffffffffffffffffffffffffffffffffffffffffffffffffffff03821115615b8b57615b8a615d31565b5b828201905092915050565b6000615ba182615c39565b9150615bac83615c39565b925082615bbc57615bbb615d60565b5b828204905092915050565b6000615bd282615c39565b9150615bdd83615c39565b925082821015615bf057615bef615d31565b5b828203905092915050565b6000615c0682615c19565b9050919050565b60008115159050919050565b600073ffffffffffffffffffffffffffffffffffffffff82169050919050565b6000819050919050565b82818337600083830152505050565b60005b83811015615c70578082015181840152602081019050615c55565b83811115615c7f576000848401525b50505050565b60006002820490506001821680615c9d57607f821691505b60208210811415615cb157615cb0615d8f565b5b50919050565b615cc082615ded565b810181811067ffffffffffffffff82111715615cdf57615cde615dbe565b5b80604052505050565b6000615cf382615c39565b91507fffffffffffffffffffffffffffffffffffffffffffffffffffffffffffffffff821415615d2657615d25615d31565b5b600182019050919050565b7f4e487b7100000000000000000000000000000000000000000000000000000000600052601160045260246000fd5b7f4e487b7100000000000000000000000000000000000000000000000000000000600052601260045260246000fd5b7f4e487b7100000000000000000000000000000000000000000000000000000000600052602260045260246000fd5b7f4e487b7100000000000000000000000000000000000000000000000000000000600052604160045260246000fd5b6000601f19601f8301169050919050565b615e0781615bfb565b8114615e1257600080fd5b50565b615e1e81615c39565b8114615e2957600080fd5b5056fea2646970667358221220801fcd17dc2d161d2e729008f86f6050991b235ef40026d8510674b780f6b91664736f6c63430008010033",
  "linkReferences": {},
  "deployedLinkReferences": {}
}