{
  "_format": "hh-sol-artifact-1",
  "contractName": "Funds",
  "sourceName": "contracts/Funds.sol",
  "abi": [
    {
      "inputs": [],
      "stateMutability": "nonpayable",
      "type": "constructor"
    },
    {
      "inputs": [
        {
          "internalType": "uint256",
          "name": "_amount",
          "type": "uint256"
        }
      ],
      "name": "AddFunds",
      "outputs": [],
      "stateMutability": "nonpayable",
      "type": "function"
    },
    {
      "inputs": [
        {
          "internalType": "uint256",
          "name": "_id",
          "type": "uint256"
        }
      ],
      "name": "ApproveProjects",
      "outputs": [],
      "stateMutability": "nonpayable",
      "type": "function"
    },
    {
      "inputs": [],
      "name": "CentralLogin",
      "outputs": [
        {
          "internalType": "bool",
          "name": "",
          "type": "bool"
        }
      ],
      "stateMutability": "view",
      "type": "function"
    },
    {
      "inputs": [
        {
          "internalType": "string",
          "name": "_name",
          "type": "string"
        }
      ],
      "name": "DepartmentCheck",
      "outputs": [
        {
          "internalType": "bool",
          "name": "",
          "type": "bool"
        }
      ],
      "stateMutability": "view",
      "type": "function"
    },
    {
      "inputs": [],
      "name": "DepartmentLogin",
      "outputs": [
        {
          "internalType": "bool",
          "name": "",
          "type": "bool"
        }
      ],
      "stateMutability": "view",
      "type": "function"
    },
    {
      "inputs": [
        {
          "internalType": "string",
          "name": "_under_name",
          "type": "string"
        },
        {
          "internalType": "address",
          "name": "_add",
          "type": "address"
        },
        {
          "internalType": "string",
          "name": "_name",
          "type": "string"
        }
      ],
      "name": "DepartmentRegister",
      "outputs": [],
      "stateMutability": "nonpayable",
      "type": "function"
    },
    {
      "inputs": [],
      "name": "GetBalance",
      "outputs": [
        {
          "internalType": "uint256",
          "name": "",
          "type": "uint256"
        }
      ],
      "stateMutability": "view",
      "type": "function"
    },
    {
      "inputs": [
        {
          "internalType": "string",
          "name": "_name",
          "type": "string"
        }
      ],
      "name": "GovernmentCheck",
      "outputs": [
        {
          "internalType": "bool",
          "name": "",
          "type": "bool"
        }
      ],
      "stateMutability": "view",
      "type": "function"
    },
    {
      "inputs": [],
      "name": "GovernmentLogin",
      "outputs": [
        {
          "internalType": "bool",
          "name": "",
          "type": "bool"
        }
      ],
      "stateMutability": "view",
      "type": "function"
    },
    {
      "inputs": [
        {
          "internalType": "address",
          "name": "_add",
          "type": "address"
        },
        {
          "internalType": "string",
          "name": "_name",
          "type": "string"
        }
      ],
      "name": "GovernmentRegister",
      "outputs": [],
      "stateMutability": "nonpayable",
      "type": "function"
    },
    {
      "inputs": [
        {
          "internalType": "string",
          "name": "_project_name",
          "type": "string"
        },
        {
          "internalType": "string",
          "name": "_name",
          "type": "string"
        },
        {
          "internalType": "string",
          "name": "_dept_name",
          "type": "string"
        },
        {
          "internalType": "uint256",
          "name": "_amount",
          "type": "uint256"
        }
      ],
      "name": "OpenContract",
      "outputs": [],
      "stateMutability": "nonpayable",
      "type": "function"
    },
    {
      "inputs": [
        {
          "internalType": "uint256",
          "name": "_id",
          "type": "uint256"
        }
      ],
      "name": "SendInstallment1",
      "outputs": [],
      "stateMutability": "nonpayable",
      "type": "function"
    },
    {
      "inputs": [
        {
          "internalType": "uint256",
          "name": "_id",
          "type": "uint256"
        }
      ],
      "name": "SendInstallment2",
      "outputs": [],
      "stateMutability": "nonpayable",
      "type": "function"
    },
    {
      "inputs": [
        {
          "internalType": "uint256",
          "name": "_id",
          "type": "uint256"
        },
        {
          "internalType": "uint256",
          "name": "_amount",
          "type": "uint256"
        },
        {
          "internalType": "string",
          "name": "_vendor_name",
          "type": "string"
        },
        {
          "internalType": "string",
          "name": "_contract_name",
          "type": "string"
        }
      ],
      "name": "SendToVendor",
      "outputs": [],
      "stateMutability": "nonpayable",
      "type": "function"
    },
    {
      "inputs": [
        {
          "internalType": "string",
          "name": "_name",
          "type": "string"
        },
        {
          "internalType": "uint256",
          "name": "_amount",
          "type": "uint256"
        },
        {
          "internalType": "uint256",
          "name": "_installments",
          "type": "uint256"
        },
        {
          "internalType": "string",
          "name": "_state_name",
          "type": "string"
        },
        {
          "internalType": "string",
          "name": "_dept_name",
          "type": "string"
        }
      ],
      "name": "StartProject",
      "outputs": [],
      "stateMutability": "nonpayable",
      "type": "function"
    },
    {
      "inputs": [
        {
          "internalType": "uint256",
          "name": "_id",
          "type": "uint256"
        }
      ],
      "name": "TrackProject",
      "outputs": [
        {
          "components": [
            {
              "internalType": "uint256",
              "name": "id",
              "type": "uint256"
            },
            {
              "internalType": "string",
              "name": "name",
              "type": "string"
            },
            {
              "internalType": "uint256",
              "name": "amount",
              "type": "uint256"
            },
            {
              "internalType": "uint256",
              "name": "installments",
              "type": "uint256"
            },
            {
              "internalType": "uint256",
              "name": "given",
              "type": "uint256"
            },
            {
              "internalType": "uint256",
              "name": "status",
              "type": "uint256"
            },
            {
              "internalType": "uint256",
              "name": "curr_inst",
              "type": "uint256"
            },
            {
              "internalType": "address",
              "name": "state_add",
              "type": "address"
            },
            {
              "internalType": "string",
              "name": "state_name",
              "type": "string"
            },
            {
              "internalType": "address",
              "name": "department_add",
              "type": "address"
            },
            {
              "internalType": "string",
              "name": "department_name",
              "type": "string"
            },
            {
              "components": [
                {
                  "internalType": "uint256",
                  "name": "project_id",
                  "type": "uint256"
                },
                {
                  "internalType": "uint256",
                  "name": "installment_no",
                  "type": "uint256"
                },
                {
                  "internalType": "uint256",
                  "name": "amount",
                  "type": "uint256"
                },
                {
                  "internalType": "uint256",
                  "name": "time",
                  "type": "uint256"
                },
                {
                  "internalType": "address",
                  "name": "from",
                  "type": "address"
                },
                {
                  "internalType": "string",
                  "name": "from_name",
                  "type": "string"
                },
                {
                  "internalType": "address",
                  "name": "to",
                  "type": "address"
                },
                {
                  "internalType": "string",
                  "name": "to_name",
                  "type": "string"
                }
              ],
              "internalType": "struct Funds.Installment[]",
              "name": "inst",
              "type": "tuple[]"
            },
            {
              "components": [
                {
                  "internalType": "uint256",
                  "name": "project_id",
                  "type": "uint256"
                },
                {
                  "internalType": "string",
                  "name": "contract_name",
                  "type": "string"
                },
                {
                  "internalType": "address",
                  "name": "vendor_add",
                  "type": "address"
                },
                {
                  "internalType": "string",
                  "name": "vendor_name",
                  "type": "string"
                },
                {
                  "internalType": "uint256",
                  "name": "amount",
                  "type": "uint256"
                },
                {
                  "internalType": "uint256",
                  "name": "time",
                  "type": "uint256"
                },
                {
                  "internalType": "address",
                  "name": "from",
                  "type": "address"
                },
                {
                  "internalType": "string",
                  "name": "from_name",
                  "type": "string"
                }
              ],
              "internalType": "struct Funds.VendorPaid[]",
              "name": "vendor",
              "type": "tuple[]"
            }
          ],
          "internalType": "struct Funds.Project",
          "name": "",
          "type": "tuple"
        }
      ],
      "stateMutability": "view",
      "type": "function"
    },
    {
      "inputs": [
        {
          "internalType": "string",
          "name": "_name",
          "type": "string"
        }
      ],
      "name": "VendorCheck",
      "outputs": [
        {
          "internalType": "bool",
          "name": "",
          "type": "bool"
        }
      ],
      "stateMutability": "view",
      "type": "function"
    },
    {
      "inputs": [],
      "name": "VendorLogin",
      "outputs": [
        {
          "internalType": "bool",
          "name": "",
          "type": "bool"
        }
      ],
      "stateMutability": "view",
      "type": "function"
    },
    {
      "inputs": [
        {
          "internalType": "string",
          "name": "_under_name",
          "type": "string"
        },
        {
          "internalType": "address",
          "name": "_add",
          "type": "address"
        },
        {
          "internalType": "string",
          "name": "_name",
          "type": "string"
        }
      ],
      "name": "VendorRegister",
      "outputs": [],
      "stateMutability": "nonpayable",
      "type": "function"
    },
    {
      "inputs": [],
      "name": "balance",
      "outputs": [
        {
          "internalType": "uint256",
          "name": "",
          "type": "uint256"
        }
      ],
      "stateMutability": "view",
      "type": "function"
    },
    {
      "inputs": [],
      "name": "central",
      "outputs": [
        {
          "internalType": "address",
          "name": "",
          "type": "address"
        }
      ],
      "stateMutability": "view",
      "type": "function"
    },
    {
      "inputs": [],
      "name": "getAllProjects",
      "outputs": [
        {
          "components": [
            {
              "internalType": "uint256",
              "name": "id",
              "type": "uint256"
            },
            {
              "internalType": "string",
              "name": "name",
              "type": "string"
            },
            {
              "internalType": "uint256",
              "name": "amount",
              "type": "uint256"
            },
            {
              "internalType": "uint256",
              "name": "installments",
              "type": "uint256"
            },
            {
              "internalType": "uint256",
              "name": "given",
              "type": "uint256"
            },
            {
              "internalType": "uint256",
              "name": "status",
              "type": "uint256"
            },
            {
              "internalType": "uint256",
              "name": "curr_inst",
              "type": "uint256"
            },
            {
              "internalType": "address",
              "name": "state_add",
              "type": "address"
            },
            {
              "internalType": "string",
              "name": "state_name",
              "type": "string"
            },
            {
              "internalType": "address",
              "name": "department_add",
              "type": "address"
            },
            {
              "internalType": "string",
              "name": "department_name",
              "type": "string"
            },
            {
              "components": [
                {
                  "internalType": "uint256",
                  "name": "project_id",
                  "type": "uint256"
                },
                {
                  "internalType": "uint256",
                  "name": "installment_no",
                  "type": "uint256"
                },
                {
                  "internalType": "uint256",
                  "name": "amount",
                  "type": "uint256"
                },
                {
                  "internalType": "uint256",
                  "name": "time",
                  "type": "uint256"
                },
                {
                  "internalType": "address",
                  "name": "from",
                  "type": "address"
                },
                {
                  "internalType": "string",
                  "name": "from_name",
                  "type": "string"
                },
                {
                  "internalType": "address",
                  "name": "to",
                  "type": "address"
                },
                {
                  "internalType": "string",
                  "name": "to_name",
                  "type": "string"
                }
              ],
              "internalType": "struct Funds.Installment[]",
              "name": "inst",
              "type": "tuple[]"
            },
            {
              "components": [
                {
                  "internalType": "uint256",
                  "name": "project_id",
                  "type": "uint256"
                },
                {
                  "internalType": "string",
                  "name": "contract_name",
                  "type": "string"
                },
                {
                  "internalType": "address",
                  "name": "vendor_add",
                  "type": "address"
                },
                {
                  "internalType": "string",
                  "name": "vendor_name",
                  "type": "string"
                },
                {
                  "internalType": "uint256",
                  "name": "amount",
                  "type": "uint256"
                },
                {
                  "internalType": "uint256",
                  "name": "time",
                  "type": "uint256"
                },
                {
                  "internalType": "address",
                  "name": "from",
                  "type": "address"
                },
                {
                  "internalType": "string",
                  "name": "from_name",
                  "type": "string"
                }
              ],
              "internalType": "struct Funds.VendorPaid[]",
              "name": "vendor",
              "type": "tuple[]"
            }
          ],
          "internalType": "struct Funds.Project[]",
          "name": "",
          "type": "tuple[]"
        }
      ],
      "stateMutability": "view",
      "type": "function"
    },
    {
      "inputs": [],
      "name": "getContracts",
      "outputs": [
        {
          "components": [
            {
              "internalType": "uint256",
              "name": "contract_id",
              "type": "uint256"
            },
            {
              "internalType": "uint256",
              "name": "project_id",
              "type": "uint256"
            },
            {
              "internalType": "string",
              "name": "name",
              "type": "string"
            },
            {
              "internalType": "address",
              "name": "dept_add",
              "type": "address"
            },
            {
              "internalType": "string",
              "name": "dept_name",
              "type": "string"
            },
            {
              "internalType": "uint256",
              "name": "status",
              "type": "uint256"
            },
            {
              "internalType": "uint256",
              "name": "amount",
              "type": "uint256"
            }
          ],
          "internalType": "struct Funds.Contract[]",
          "name": "",
          "type": "tuple[]"
        }
      ],
      "stateMutability": "view",
      "type": "function"
    },
    {
      "inputs": [],
      "name": "getProjectCount",
      "outputs": [
        {
          "internalType": "uint256",
          "name": "",
          "type": "uint256"
        }
      ],
      "stateMutability": "view",
      "type": "function"
    },
    {
      "inputs": [],
      "name": "getStateProjects",
      "outputs": [
        {
          "components": [
            {
              "internalType": "uint256",
              "name": "id",
              "type": "uint256"
            },
            {
              "internalType": "string",
              "name": "name",
              "type": "string"
            },
            {
              "internalType": "uint256",
              "name": "amount",
              "type": "uint256"
            },
            {
              "internalType": "uint256",
              "name": "installments",
              "type": "uint256"
            },
            {
              "internalType": "uint256",
              "name": "given",
              "type": "uint256"
            },
            {
              "internalType": "uint256",
              "name": "status",
              "type": "uint256"
            },
            {
              "internalType": "uint256",
              "name": "curr_inst",
              "type": "uint256"
            },
            {
              "internalType": "address",
              "name": "state_add",
              "type": "address"
            },
            {
              "internalType": "string",
              "name": "state_name",
              "type": "string"
            },
            {
              "internalType": "address",
              "name": "department_add",
              "type": "address"
            },
            {
              "internalType": "string",
              "name": "department_name",
              "type": "string"
            },
            {
              "components": [
                {
                  "internalType": "uint256",
                  "name": "project_id",
                  "type": "uint256"
                },
                {
                  "internalType": "uint256",
                  "name": "installment_no",
                  "type": "uint256"
                },
                {
                  "internalType": "uint256",
                  "name": "amount",
                  "type": "uint256"
                },
                {
                  "internalType": "uint256",
                  "name": "time",
                  "type": "uint256"
                },
                {
                  "internalType": "address",
                  "name": "from",
                  "type": "address"
                },
                {
                  "internalType": "string",
                  "name": "from_name",
                  "type": "string"
                },
                {
                  "internalType": "address",
                  "name": "to",
                  "type": "address"
                },
                {
                  "internalType": "string",
                  "name": "to_name",
                  "type": "string"
                }
              ],
              "internalType": "struct Funds.Installment[]",
              "name": "inst",
              "type": "tuple[]"
            },
            {
              "components": [
                {
                  "internalType": "uint256",
                  "name": "project_id",
                  "type": "uint256"
                },
                {
                  "internalType": "string",
                  "name": "contract_name",
                  "type": "string"
                },
                {
                  "internalType": "address",
                  "name": "vendor_add",
                  "type": "address"
                },
                {
                  "internalType": "string",
                  "name": "vendor_name",
                  "type": "string"
                },
                {
                  "internalType": "uint256",
                  "name": "amount",
                  "type": "uint256"
                },
                {
                  "internalType": "uint256",
                  "name": "time",
                  "type": "uint256"
                },
                {
                  "internalType": "address",
                  "name": "from",
                  "type": "address"
                },
                {
                  "internalType": "string",
                  "name": "from_name",
                  "type": "string"
                }
              ],
              "internalType": "struct Funds.VendorPaid[]",
              "name": "vendor",
              "type": "tuple[]"
            }
          ],
          "internalType": "struct Funds.Project[]",
          "name": "",
          "type": "tuple[]"
        }
      ],
      "stateMutability": "view",
      "type": "function"
    },
    {
      "inputs": [
        {
          "internalType": "uint256",
          "name": "",
          "type": "uint256"
        }
      ],
      "name": "projects",
      "outputs": [
        {
          "internalType": "uint256",
          "name": "id",
          "type": "uint256"
        },
        {
          "internalType": "string",
          "name": "name",
          "type": "string"
        },
        {
          "internalType": "uint256",
          "name": "amount",
          "type": "uint256"
        },
        {
          "internalType": "uint256",
          "name": "installments",
          "type": "uint256"
        },
        {
          "internalType": "uint256",
          "name": "given",
          "type": "uint256"
        },
        {
          "internalType": "uint256",
          "name": "status",
          "type": "uint256"
        },
        {
          "internalType": "uint256",
          "name": "curr_inst",
          "type": "uint256"
        },
        {
          "internalType": "address",
          "name": "state_add",
          "type": "address"
        },
        {
          "internalType": "string",
          "name": "state_name",
          "type": "string"
        },
        {
          "internalType": "address",
          "name": "department_add",
          "type": "address"
        },
        {
          "internalType": "string",
          "name": "department_name",
          "type": "string"
        }
      ],
      "stateMutability": "view",
      "type": "function"
    }
  ],
  "bytecode": "0x608060405234801561001057600080fd5b50336000806101000a81548173ffffffffffffffffffffffffffffffffffffffff021916908373ffffffffffffffffffffffffffffffffffffffff160217905550600060018190555060006002819055506000600381905550615fa680620000796000396000f3fe608060405234801561001057600080fd5b506004361061018e5760003560e01c806397a7d098116100de578063c3a2a93a11610097578063d8fbd7c411610071578063d8fbd7c414610467578063e2c358e614610497578063f7a7b7e2146104b5578063f8f8a912146104d15761018e565b8063c3a2a93a14610411578063ce032f561461042f578063cfe0b2021461044b5761018e565b806397a7d0981461034f5780639c5d45b71461036b5780639dc0a6391461039b578063b2048cd1146103b7578063b69ef8a8146103d5578063b7826af8146103f35761018e565b8063393f01501161014b57806362cb312b1161012557806362cb312b146102c7578063789d531e146102f757806380d038291461031357806385c1ca99146103315761018e565b8063393f01501461026f5780633bcff3b01461028d57806347ed6778146102ab5761018e565b80630a6a6cc314610193578063107046bd146101b1578063135bd60d146101eb578063229cb2a914610207578063357b9deb1461023757806335a629f314610253575b600080fd5b61019b6104ef565b6040516101a891906159e5565b60405180910390f35b6101cb60048036038101906101c69190615089565b6105cc565b6040516101e29b9a99989796959493929190615a3d565b60405180910390f35b61020560048036038101906102009190614f1f565b6107fe565b005b610221600480360381019061021c9190614e5f565b6109eb565b60405161022e91906159e5565b60405180910390f35b610251600480360381019061024c9190614fca565b610b73565b005b61026d60048036038101906102689190615089565b611010565b005b6102776115dd565b60405161028491906159c3565b60405180910390f35b610295612070565b6040516102a29190615a22565b60405180910390f35b6102c560048036038101906102c09190615089565b61207a565b005b6102e160048036038101906102dc9190614e5f565b612576565b6040516102ee91906159e5565b60405180910390f35b610311600480360381019061030c91906150b2565b6126fe565b005b61031b612d70565b60405161032891906159c3565b60405180910390f35b610339613653565b60405161034691906159e5565b60405180910390f35b61036960048036038101906103649190614ea0565b613730565b005b61038560048036038101906103809190614e5f565b6138e8565b60405161039291906159e5565b60405180910390f35b6103b560048036038101906103b09190614e0b565b613a70565b005b6103bf613b82565b6040516103cc91906159e5565b60405180910390f35b6103dd613c5f565b6040516103ea9190615a22565b60405180910390f35b6103fb613c65565b6040516104089190615986565b60405180910390f35b610419613c89565b60405161042691906159a1565b60405180910390f35b61044960048036038101906104449190615089565b6140f3565b005b61046560048036038101906104609190615089565b61410a565b005b610481600480360381019061047c9190615089565b614145565b60405161048e9190615a00565b60405180910390f35b61049f614949565b6040516104ac91906159e5565b60405180910390f35b6104cf60048036038101906104ca9190614ea0565b6149b1565b005b6104d9614af8565b6040516104e69190615a22565b60405180910390f35b600080600680549050905060005b818110156105c2573373ffffffffffffffffffffffffffffffffffffffff1660068281548110610556577f4e487b7100000000000000000000000000000000000000000000000000000000600052603260045260246000fd5b906000526020600020906004020160020160009054906101000a900473ffffffffffffffffffffffffffffffffffffffff1673ffffffffffffffffffffffffffffffffffffffff1614156105af576001925050506105c9565b80806105ba90615e2c565b9150506104fd565b5060009150505b90565b60086020528060005260406000206000915090508060000154908060010180546105f590615dc9565b80601f016020809104026020016040519081016040528092919081815260200182805461062190615dc9565b801561066e5780601f106106435761010080835404028352916020019161066e565b820191906000526020600020905b81548152906001019060200180831161065157829003601f168201915b5050505050908060020154908060030154908060040154908060050154908060060154908060070160009054906101000a900473ffffffffffffffffffffffffffffffffffffffff16908060080180546106c790615dc9565b80601f01602080910402602001604051908101604052809291908181526020018280546106f390615dc9565b80156107405780601f1061071557610100808354040283529160200191610740565b820191906000526020600020905b81548152906001019060200180831161072357829003601f168201915b5050505050908060090160009054906101000a900473ffffffffffffffffffffffffffffffffffffffff169080600a01805461077b90615dc9565b80601f01602080910402602001604051908101604052809291908181526020018280546107a790615dc9565b80156107f45780601f106107c9576101008083540402835291602001916107f4565b820191906000526020600020905b8154815290600101906020018083116107d757829003601f168201915b505050505090508b565b60006002549050600080600090505b828110156108ab57866040516020016108269190615958565b6040516020818303038152906040528051906020012060086000838152602001908152602001600020600101604051602001610862919061596f565b60405160208183030381529060405280519060200120141561089857600860008281526020019081526020016000206000015491505b80806108a390615e2c565b91505061080d565b5060076040518060e0016040528060035481526020018381526020018781526020013373ffffffffffffffffffffffffffffffffffffffff1681526020018681526020016000815260200185815250908060018154018082558091505060019003906000526020600020906007020160009091909190915060008201518160000155602082015181600101556040820151816002019080519060200190610953929190614b02565b5060608201518160030160006101000a81548173ffffffffffffffffffffffffffffffffffffffff021916908373ffffffffffffffffffffffffffffffffffffffff16021790555060808201518160040190805190602001906109b7929190614b02565b5060a0820151816005015560c08201518160060155505060016003546109dd9190615c84565b600381905550505050505050565b600080600680549050905060005b81811015610b675783604051602001610a129190615958565b6040516020818303038152906040528051906020012060068281548110610a62577f4e487b7100000000000000000000000000000000000000000000000000000000600052603260045260246000fd5b9060005260206000209060040201600301604051602001610a83919061596f565b604051602081830303815290604052805190602001201415610aaa57600092505050610b6e565b60068181548110610ae4577f4e487b7100000000000000000000000000000000000000000000000000000000600052603260045260246000fd5b906000526020600020906004020160020160009054906101000a900473ffffffffffffffffffffffffffffffffffffffff1673ffffffffffffffffffffffffffffffffffffffff163373ffffffffffffffffffffffffffffffffffffffff161415610b5457600092505050610b6e565b8080610b5f90615e2c565b9150506109f9565b5060019150505b919050565b600080600060048054905090506000600580549050905060005b82811015610d295786604051602001610ba69190615958565b6040516020818303038152906040528051906020012060048281548110610bf6577f4e487b7100000000000000000000000000000000000000000000000000000000600052603260045260246000fd5b9060005260206000209060040201600101604051602001610c17919061596f565b604051602081830303815290604052805190602001201415610d165760048181548110610c6d577f4e487b7100000000000000000000000000000000000000000000000000000000600052603260045260246000fd5b906000526020600020906004020160000160009054906101000a900473ffffffffffffffffffffffffffffffffffffffff16945060048181548110610cdb577f4e487b7100000000000000000000000000000000000000000000000000000000600052603260045260246000fd5b906000526020600020906004020160030160025490806001815401808255809150506001900390600052602060002001600090919091909150555b8080610d2190615e2c565b915050610b8d565b5060005b81811015610ec95785604051602001610d469190615958565b6040516020818303038152906040528051906020012060058281548110610d96577f4e487b7100000000000000000000000000000000000000000000000000000000600052603260045260246000fd5b9060005260206000209060060201600301604051602001610db7919061596f565b604051602081830303815290604052805190602001201415610eb65760058181548110610e0d577f4e487b7100000000000000000000000000000000000000000000000000000000600052603260045260246000fd5b906000526020600020906006020160020160009054906101000a900473ffffffffffffffffffffffffffffffffffffffff16935060058181548110610e7b577f4e487b7100000000000000000000000000000000000000000000000000000000600052603260045260246000fd5b906000526020600020906006020160050160025490806001815401808255809150506001900390600052602060002001600090919091909150555b8080610ec190615e2c565b915050610d2d565b506000600860006002548152602001908152602001600020905060025481600001819055506001600254610efd9190615c84565b60028190555089816001019080519060200190610f1b929190614b02565b50888160020181905550600081600401819055506000816005018190555060008160060181905550878160030181905550848160070160006101000a81548173ffffffffffffffffffffffffffffffffffffffff021916908373ffffffffffffffffffffffffffffffffffffffff16021790555086816008019080519060200190610fa7929190614b02565b508581600a019080519060200190610fc0929190614b02565b50838160090160006101000a81548173ffffffffffffffffffffffffffffffffffffffff021916908373ffffffffffffffffffffffffffffffffffffffff16021790555050505050505050505050565b60006008600083815260200190815260200160002060030154600860008481526020019081526020016000206002015461104a9190615cda565b905060086000838152602001908152602001600020600b01604051806101000160405280848152602001600860008681526020019081526020016000206006015481526020018381526020014281526020016008600086815260200190815260200160002060070160009054906101000a900473ffffffffffffffffffffffffffffffffffffffff1673ffffffffffffffffffffffffffffffffffffffff16815260200160086000868152602001908152602001600020600801805461110f90615dc9565b80601f016020809104026020016040519081016040528092919081815260200182805461113b90615dc9565b80156111885780601f1061115d57610100808354040283529160200191611188565b820191906000526020600020905b81548152906001019060200180831161116b57829003601f168201915b505050505081526020016008600086815260200190815260200160002060090160009054906101000a900473ffffffffffffffffffffffffffffffffffffffff1673ffffffffffffffffffffffffffffffffffffffff16815260200160086000868152602001908152602001600020600a01805461120590615dc9565b80601f016020809104026020016040519081016040528092919081815260200182805461123190615dc9565b801561127e5780601f106112535761010080835404028352916020019161127e565b820191906000526020600020905b81548152906001019060200180831161126157829003601f168201915b505050505081525090806001815401808255809150506001900390600052602060002090600802016000909190919091506000820151816000015560208201518160010155604082015181600201556060820151816003015560808201518160040160006101000a81548173ffffffffffffffffffffffffffffffffffffffff021916908373ffffffffffffffffffffffffffffffffffffffff16021790555060a082015181600501908051906020019061133a929190614b02565b5060c08201518160060160006101000a81548173ffffffffffffffffffffffffffffffffffffffff021916908373ffffffffffffffffffffffffffffffffffffffff16021790555060e082015181600701908051906020019061139e929190614b02565b505050600160086000848152602001908152602001600020600601546113c49190615c84565b600860008481526020019081526020016000206006018190555060086000838152602001908152602001600020600301546008600084815260200190815260200160002060060154111561142f57600260086000848152602001908152602001600020600501819055505b6000600580549050905060005b818110156115d7576008600085815260200190815260200160002060090160009054906101000a900473ffffffffffffffffffffffffffffffffffffffff1673ffffffffffffffffffffffffffffffffffffffff16600582815481106114cb577f4e487b7100000000000000000000000000000000000000000000000000000000600052603260045260246000fd5b906000526020600020906006020160020160009054906101000a900473ffffffffffffffffffffffffffffffffffffffff1673ffffffffffffffffffffffffffffffffffffffff1614156115c4578260058281548110611554577f4e487b7100000000000000000000000000000000000000000000000000000000600052603260045260246000fd5b9060005260206000209060060201600401546115709190615c84565b600582815481106115aa577f4e487b7100000000000000000000000000000000000000000000000000000000600052603260045260246000fd5b9060005260206000209060060201600401819055506115d7565b80806115cf90615e2c565b91505061143c565b50505050565b60606000600480549050905060008060005b83811015611702573373ffffffffffffffffffffffffffffffffffffffff1660048281548110611648577f4e487b7100000000000000000000000000000000000000000000000000000000600052603260045260246000fd5b906000526020600020906004020160000160009054906101000a900473ffffffffffffffffffffffffffffffffffffffff1673ffffffffffffffffffffffffffffffffffffffff1614156116ef57600481815481106116d0577f4e487b7100000000000000000000000000000000000000000000000000000000600052603260045260246000fd5b9060005260206000209060040201600301805490509250809150611702565b80806116fa90615e2c565b9150506115ef565b5060008267ffffffffffffffff811115611745577f4e487b7100000000000000000000000000000000000000000000000000000000600052604160045260246000fd5b60405190808252806020026020018201604052801561177e57816020015b61176b614b88565b8152602001906001900390816117635790505b50905060005b838110156120655760086000600485815481106117ca577f4e487b7100000000000000000000000000000000000000000000000000000000600052603260045260246000fd5b90600052602060002090600402016003018381548110611813577f4e487b7100000000000000000000000000000000000000000000000000000000600052603260045260246000fd5b90600052602060002001548152602001908152602001600020604051806101a00160405290816000820154815260200160018201805461185290615dc9565b80601f016020809104026020016040519081016040528092919081815260200182805461187e90615dc9565b80156118cb5780601f106118a0576101008083540402835291602001916118cb565b820191906000526020600020905b8154815290600101906020018083116118ae57829003601f168201915b5050505050815260200160028201548152602001600382015481526020016004820154815260200160058201548152602001600682015481526020016007820160009054906101000a900473ffffffffffffffffffffffffffffffffffffffff1673ffffffffffffffffffffffffffffffffffffffff1673ffffffffffffffffffffffffffffffffffffffff16815260200160088201805461196c90615dc9565b80601f016020809104026020016040519081016040528092919081815260200182805461199890615dc9565b80156119e55780601f106119ba576101008083540402835291602001916119e5565b820191906000526020600020905b8154815290600101906020018083116119c857829003601f168201915b505050505081526020016009820160009054906101000a900473ffffffffffffffffffffffffffffffffffffffff1673ffffffffffffffffffffffffffffffffffffffff1673ffffffffffffffffffffffffffffffffffffffff168152602001600a82018054611a5490615dc9565b80601f0160208091040260200160405190810160405280929190818152602001828054611a8090615dc9565b8015611acd5780601f10611aa257610100808354040283529160200191611acd565b820191906000526020600020905b815481529060010190602001808311611ab057829003601f168201915b50505050508152602001600b8201805480602002602001604051908101604052809291908181526020016000905b82821015611d26578382906000526020600020906008020160405180610100016040529081600082015481526020016001820154815260200160028201548152602001600382015481526020016004820160009054906101000a900473ffffffffffffffffffffffffffffffffffffffff1673ffffffffffffffffffffffffffffffffffffffff1673ffffffffffffffffffffffffffffffffffffffff168152602001600582018054611bad90615dc9565b80601f0160208091040260200160405190810160405280929190818152602001828054611bd990615dc9565b8015611c265780601f10611bfb57610100808354040283529160200191611c26565b820191906000526020600020905b815481529060010190602001808311611c0957829003601f168201915b505050505081526020016006820160009054906101000a900473ffffffffffffffffffffffffffffffffffffffff1673ffffffffffffffffffffffffffffffffffffffff1673ffffffffffffffffffffffffffffffffffffffff168152602001600782018054611c9590615dc9565b80601f0160208091040260200160405190810160405280929190818152602001828054611cc190615dc9565b8015611d0e5780601f10611ce357610100808354040283529160200191611d0e565b820191906000526020600020905b815481529060010190602001808311611cf157829003601f168201915b50505050508152505081526020019060010190611afb565b505050508152602001600c8201805480602002602001604051908101604052809291908181526020016000905b8282101561200657838290600052602060002090600802016040518061010001604052908160008201548152602001600182018054611d9190615dc9565b80601f0160208091040260200160405190810160405280929190818152602001828054611dbd90615dc9565b8015611e0a5780601f10611ddf57610100808354040283529160200191611e0a565b820191906000526020600020905b815481529060010190602001808311611ded57829003601f168201915b505050505081526020016002820160009054906101000a900473ffffffffffffffffffffffffffffffffffffffff1673ffffffffffffffffffffffffffffffffffffffff1673ffffffffffffffffffffffffffffffffffffffff168152602001600382018054611e7990615dc9565b80601f0160208091040260200160405190810160405280929190818152602001828054611ea590615dc9565b8015611ef25780601f10611ec757610100808354040283529160200191611ef2565b820191906000526020600020905b815481529060010190602001808311611ed557829003601f168201915b5050505050815260200160048201548152602001600582015481526020016006820160009054906101000a900473ffffffffffffffffffffffffffffffffffffffff1673ffffffffffffffffffffffffffffffffffffffff1673ffffffffffffffffffffffffffffffffffffffff168152602001600782018054611f7590615dc9565b80601f0160208091040260200160405190810160405280929190818152602001828054611fa190615dc9565b8015611fee5780601f10611fc357610100808354040283529160200191611fee565b820191906000526020600020905b815481529060010190602001808311611fd157829003601f168201915b50505050508152505081526020019060010190611d53565b5050505081525050828281518110612047577f4e487b7100000000000000000000000000000000000000000000000000000000600052603260045260246000fd5b6020026020010181905250808061205d90615e2c565b915050611784565b508094505050505090565b6000600254905090565b6000600860008381526020019081526020016000206003015460086000848152602001908152602001600020600201546120b49190615cda565b90508060086000848152602001908152602001600020600401546120d89190615c84565b600860008481526020019081526020016000206004018190555060086000838152602001908152602001600020600b016040518061010001604052808481526020016008600086815260200190815260200160002060060154815260200183815260200142815260200160008054906101000a900473ffffffffffffffffffffffffffffffffffffffff1673ffffffffffffffffffffffffffffffffffffffff1681526020016040518060400160405280600781526020017f43656e7472616c0000000000000000000000000000000000000000000000000081525081526020016008600086815260200190815260200160002060070160009054906101000a900473ffffffffffffffffffffffffffffffffffffffff1673ffffffffffffffffffffffffffffffffffffffff16815260200160086000868152602001908152602001600020600801805461222c90615dc9565b80601f016020809104026020016040519081016040528092919081815260200182805461225890615dc9565b80156122a55780601f1061227a576101008083540402835291602001916122a5565b820191906000526020600020905b81548152906001019060200180831161228857829003601f168201915b505050505081525090806001815401808255809150506001900390600052602060002090600802016000909190919091506000820151816000015560208201518160010155604082015181600201556060820151816003015560808201518160040160006101000a81548173ffffffffffffffffffffffffffffffffffffffff021916908373ffffffffffffffffffffffffffffffffffffffff16021790555060a0820151816005019080519060200190612361929190614b02565b5060c08201518160060160006101000a81548173ffffffffffffffffffffffffffffffffffffffff021916908373ffffffffffffffffffffffffffffffffffffffff16021790555060e08201518160070190805190602001906123c5929190614b02565b5050506000600480549050905060005b81811015612570576008600085815260200190815260200160002060070160009054906101000a900473ffffffffffffffffffffffffffffffffffffffff1673ffffffffffffffffffffffffffffffffffffffff1660048281548110612464577f4e487b7100000000000000000000000000000000000000000000000000000000600052603260045260246000fd5b906000526020600020906004020160000160009054906101000a900473ffffffffffffffffffffffffffffffffffffffff1673ffffffffffffffffffffffffffffffffffffffff16141561255d5782600482815481106124ed577f4e487b7100000000000000000000000000000000000000000000000000000000600052603260045260246000fd5b9060005260206000209060040201600201546125099190615c84565b60048281548110612543577f4e487b7100000000000000000000000000000000000000000000000000000000600052603260045260246000fd5b906000526020600020906004020160020181905550612570565b808061256890615e2c565b9150506123d5565b50505050565b600080600480549050905060005b818110156126f2578360405160200161259d9190615958565b60405160208183030381529060405280519060200120600482815481106125ed577f4e487b7100000000000000000000000000000000000000000000000000000000600052603260045260246000fd5b906000526020600020906004020160010160405160200161260e919061596f565b604051602081830303815290604052805190602001201415612635576000925050506126f9565b6004818154811061266f577f4e487b7100000000000000000000000000000000000000000000000000000000600052603260045260246000fd5b906000526020600020906004020160000160009054906101000a900473ffffffffffffffffffffffffffffffffffffffff1673ffffffffffffffffffffffffffffffffffffffff163373ffffffffffffffffffffffffffffffffffffffff1614156126df576000925050506126f9565b80806126ea90615e2c565b915050612584565b5060019150505b919050565b6000600580549050905060008080600090505b83811015612857576008600089815260200190815260200160002060090160009054906101000a900473ffffffffffffffffffffffffffffffffffffffff1673ffffffffffffffffffffffffffffffffffffffff16600582815481106127a0577f4e487b7100000000000000000000000000000000000000000000000000000000600052603260045260246000fd5b906000526020600020906006020160020160009054906101000a900473ffffffffffffffffffffffffffffffffffffffff1673ffffffffffffffffffffffffffffffffffffffff1614156128445760058181548110612828577f4e487b7100000000000000000000000000000000000000000000000000000000600052603260045260246000fd5b9060005260206000209060060201600401549250809150612857565b808061284f90615e2c565b915050612711565b50858210612d6757856005828154811061289a577f4e487b7100000000000000000000000000000000000000000000000000000000600052603260045260246000fd5b9060005260206000209060060201600401546128b69190615d0b565b600582815481106128f0577f4e487b7100000000000000000000000000000000000000000000000000000000600052603260045260246000fd5b9060005260206000209060060201600401819055506000600680549050905060006007898154811061294b577f4e487b7100000000000000000000000000000000000000000000000000000000600052603260045260246000fd5b9060005260206000209060070201600101549050600160078a8154811061299b577f4e487b7100000000000000000000000000000000000000000000000000000000600052603260045260246000fd5b906000526020600020906007020160050181905550600080600090505b83811015612ae457886040516020016129d19190615958565b6040516020818303038152906040528051906020012060068281548110612a21577f4e487b7100000000000000000000000000000000000000000000000000000000600052603260045260246000fd5b9060005260206000209060040201600301604051602001612a42919061596f565b604051602081830303815290604052805190602001201415612ad15760068181548110612a98577f4e487b7100000000000000000000000000000000000000000000000000000000600052603260045260246000fd5b906000526020600020906004020160020160009054906101000a900473ffffffffffffffffffffffffffffffffffffffff169150612ae4565b8080612adc90615e2c565b9150506129b8565b50600860008b8152602001908152602001600020600c016040518061010001604052808481526020018981526020018373ffffffffffffffffffffffffffffffffffffffff1681526020018a81526020018b8152602001428152602001600860008e815260200190815260200160002060090160009054906101000a900473ffffffffffffffffffffffffffffffffffffffff1673ffffffffffffffffffffffffffffffffffffffff168152602001600860008e8152602001908152602001600020600a018054612bb490615dc9565b80601f0160208091040260200160405190810160405280929190818152602001828054612be090615dc9565b8015612c2d5780601f10612c0257610100808354040283529160200191612c2d565b820191906000526020600020905b815481529060010190602001808311612c1057829003601f168201915b50505050508152509080600181540180825580915050600190039060005260206000209060080201600090919091909150600082015181600001556020820151816001019080519060200190612c84929190614b02565b5060408201518160020160006101000a81548173ffffffffffffffffffffffffffffffffffffffff021916908373ffffffffffffffffffffffffffffffffffffffff1602179055506060820151816003019080519060200190612ce8929190614b02565b506080820151816004015560a0820151816005015560c08201518160060160006101000a81548173ffffffffffffffffffffffffffffffffffffffff021916908373ffffffffffffffffffffffffffffffffffffffff16021790555060e0820151816007019080519060200190612d60929190614b02565b5050505050505b50505050505050565b6060600060025467ffffffffffffffff811115612db6577f4e487b7100000000000000000000000000000000000000000000000000000000600052604160045260246000fd5b604051908082528060200260200182016040528015612def57816020015b612ddc614b88565b815260200190600190039081612dd45790505b50905060005b60025481101561364b5760086000828152602001908152602001600020604051806101a001604052908160008201548152602001600182018054612e3890615dc9565b80601f0160208091040260200160405190810160405280929190818152602001828054612e6490615dc9565b8015612eb15780601f10612e8657610100808354040283529160200191612eb1565b820191906000526020600020905b815481529060010190602001808311612e9457829003601f168201915b5050505050815260200160028201548152602001600382015481526020016004820154815260200160058201548152602001600682015481526020016007820160009054906101000a900473ffffffffffffffffffffffffffffffffffffffff1673ffffffffffffffffffffffffffffffffffffffff1673ffffffffffffffffffffffffffffffffffffffff168152602001600882018054612f5290615dc9565b80601f0160208091040260200160405190810160405280929190818152602001828054612f7e90615dc9565b8015612fcb5780601f10612fa057610100808354040283529160200191612fcb565b820191906000526020600020905b815481529060010190602001808311612fae57829003601f168201915b505050505081526020016009820160009054906101000a900473ffffffffffffffffffffffffffffffffffffffff1673ffffffffffffffffffffffffffffffffffffffff1673ffffffffffffffffffffffffffffffffffffffff168152602001600a8201805461303a90615dc9565b80601f016020809104026020016040519081016040528092919081815260200182805461306690615dc9565b80156130b35780601f10613088576101008083540402835291602001916130b3565b820191906000526020600020905b81548152906001019060200180831161309657829003601f168201915b50505050508152602001600b8201805480602002602001604051908101604052809291908181526020016000905b8282101561330c578382906000526020600020906008020160405180610100016040529081600082015481526020016001820154815260200160028201548152602001600382015481526020016004820160009054906101000a900473ffffffffffffffffffffffffffffffffffffffff1673ffffffffffffffffffffffffffffffffffffffff1673ffffffffffffffffffffffffffffffffffffffff16815260200160058201805461319390615dc9565b80601f01602080910402602001604051908101604052809291908181526020018280546131bf90615dc9565b801561320c5780601f106131e15761010080835404028352916020019161320c565b820191906000526020600020905b8154815290600101906020018083116131ef57829003601f168201915b505050505081526020016006820160009054906101000a900473ffffffffffffffffffffffffffffffffffffffff1673ffffffffffffffffffffffffffffffffffffffff1673ffffffffffffffffffffffffffffffffffffffff16815260200160078201805461327b90615dc9565b80601f01602080910402602001604051908101604052809291908181526020018280546132a790615dc9565b80156132f45780601f106132c9576101008083540402835291602001916132f4565b820191906000526020600020905b8154815290600101906020018083116132d757829003601f168201915b505050505081525050815260200190600101906130e1565b505050508152602001600c8201805480602002602001604051908101604052809291908181526020016000905b828210156135ec5783829060005260206000209060080201604051806101000160405290816000820154815260200160018201805461337790615dc9565b80601f01602080910402602001604051908101604052809291908181526020018280546133a390615dc9565b80156133f05780601f106133c5576101008083540402835291602001916133f0565b820191906000526020600020905b8154815290600101906020018083116133d357829003601f168201915b505050505081526020016002820160009054906101000a900473ffffffffffffffffffffffffffffffffffffffff1673ffffffffffffffffffffffffffffffffffffffff1673ffffffffffffffffffffffffffffffffffffffff16815260200160038201805461345f90615dc9565b80601f016020809104026020016040519081016040528092919081815260200182805461348b90615dc9565b80156134d85780601f106134ad576101008083540402835291602001916134d8565b820191906000526020600020905b8154815290600101906020018083116134bb57829003601f168201915b5050505050815260200160048201548152602001600582015481526020016006820160009054906101000a900473ffffffffffffffffffffffffffffffffffffffff1673ffffffffffffffffffffffffffffffffffffffff1673ffffffffffffffffffffffffffffffffffffffff16815260200160078201805461355b90615dc9565b80601f016020809104026020016040519081016040528092919081815260200182805461358790615dc9565b80156135d45780601f106135a9576101008083540402835291602001916135d4565b820191906000526020600020905b8154815290600101906020018083116135b757829003601f168201915b50505050508152505081526020019060010190613339565b505050508152505082828151811061362d577f4e487b7100000000000000000000000000000000000000000000000000000000600052603260045260246000fd5b6020026020010181905250808061364390615e2c565b915050612df5565b508091505090565b600080600580549050905060005b81811015613726573373ffffffffffffffffffffffffffffffffffffffff16600582815481106136ba577f4e487b7100000000000000000000000000000000000000000000000000000000600052603260045260246000fd5b906000526020600020906006020160020160009054906101000a900473ffffffffffffffffffffffffffffffffffffffff1673ffffffffffffffffffffffffffffffffffffffff1614156137135760019250505061372d565b808061371e90615e2c565b915050613661565b5060009150505b90565b613738614c1c565b33816000019073ffffffffffffffffffffffffffffffffffffffff16908173ffffffffffffffffffffffffffffffffffffffff168152505083816020018190525082816040019073ffffffffffffffffffffffffffffffffffffffff16908173ffffffffffffffffffffffffffffffffffffffff16815250508181606001819052506000816080018181525050600581908060018154018082558091505060019003906000526020600020906006020160009091909190915060008201518160000160006101000a81548173ffffffffffffffffffffffffffffffffffffffff021916908373ffffffffffffffffffffffffffffffffffffffff1602179055506020820151816001019080519060200190613854929190614b02565b5060408201518160020160006101000a81548173ffffffffffffffffffffffffffffffffffffffff021916908373ffffffffffffffffffffffffffffffffffffffff16021790555060608201518160030190805190602001906138b8929190614b02565b506080820151816004015560a08201518160050190805190602001906138df929190614c7e565b50505050505050565b600080600580549050905060005b81811015613a64578360405160200161390f9190615958565b604051602081830303815290604052805190602001206005828154811061395f577f4e487b7100000000000000000000000000000000000000000000000000000000600052603260045260246000fd5b9060005260206000209060060201600301604051602001613980919061596f565b6040516020818303038152906040528051906020012014156139a757600092505050613a6b565b600581815481106139e1577f4e487b7100000000000000000000000000000000000000000000000000000000600052603260045260246000fd5b906000526020600020906006020160020160009054906101000a900473ffffffffffffffffffffffffffffffffffffffff1673ffffffffffffffffffffffffffffffffffffffff163373ffffffffffffffffffffffffffffffffffffffff161415613a5157600092505050613a6b565b8080613a5c90615e2c565b9150506138f6565b5060019150505b919050565b613a78614ccb565b82816000019073ffffffffffffffffffffffffffffffffffffffff16908173ffffffffffffffffffffffffffffffffffffffff16815250508181602001819052506000816040018181525050600481908060018154018082558091505060019003906000526020600020906004020160009091909190915060008201518160000160006101000a81548173ffffffffffffffffffffffffffffffffffffffff021916908373ffffffffffffffffffffffffffffffffffffffff1602179055506020820151816001019080519060200190613b53929190614b02565b50604082015181600201556060820151816003019080519060200190613b7a929190614c7e565b505050505050565b600080600480549050905060005b81811015613c55573373ffffffffffffffffffffffffffffffffffffffff1660048281548110613be9577f4e487b7100000000000000000000000000000000000000000000000000000000600052603260045260246000fd5b906000526020600020906004020160000160009054906101000a900473ffffffffffffffffffffffffffffffffffffffff1673ffffffffffffffffffffffffffffffffffffffff161415613c4257600192505050613c5c565b8080613c4d90615e2c565b915050613b90565b5060009150505b90565b60015481565b60008054906101000a900473ffffffffffffffffffffffffffffffffffffffff1681565b6060600060078054905090506000805b82811015613d625760078181548110613cdb577f4e487b7100000000000000000000000000000000000000000000000000000000600052603260045260246000fd5b906000526020600020906007020160030160009054906101000a900473ffffffffffffffffffffffffffffffffffffffff1673ffffffffffffffffffffffffffffffffffffffff163373ffffffffffffffffffffffffffffffffffffffff161415613d4f578180613d4b90615e2c565b9250505b8080613d5a90615e2c565b915050613c99565b5060008167ffffffffffffffff811115613da5577f4e487b7100000000000000000000000000000000000000000000000000000000600052604160045260246000fd5b604051908082528060200260200182016040528015613dde57816020015b613dcb614d09565b815260200190600190039081613dc35790505b5090506000805b848110156140e85760078181548110613e27577f4e487b7100000000000000000000000000000000000000000000000000000000600052603260045260246000fd5b906000526020600020906007020160030160009054906101000a900473ffffffffffffffffffffffffffffffffffffffff1673ffffffffffffffffffffffffffffffffffffffff163373ffffffffffffffffffffffffffffffffffffffff1614156140d55760078181548110613ec6577f4e487b7100000000000000000000000000000000000000000000000000000000600052603260045260246000fd5b90600052602060002090600702016040518060e00160405290816000820154815260200160018201548152602001600282018054613f0390615dc9565b80601f0160208091040260200160405190810160405280929190818152602001828054613f2f90615dc9565b8015613f7c5780601f10613f5157610100808354040283529160200191613f7c565b820191906000526020600020905b815481529060010190602001808311613f5f57829003601f168201915b505050505081526020016003820160009054906101000a900473ffffffffffffffffffffffffffffffffffffffff1673ffffffffffffffffffffffffffffffffffffffff1673ffffffffffffffffffffffffffffffffffffffff168152602001600482018054613feb90615dc9565b80601f016020809104026020016040519081016040528092919081815260200182805461401790615dc9565b80156140645780601f1061403957610100808354040283529160200191614064565b820191906000526020600020905b81548152906001019060200180831161404757829003601f168201915b50505050508152602001600582015481526020016006820154815250508383815181106140ba577f4e487b7100000000000000000000000000000000000000000000000000000000600052603260045260246000fd5b60200260200101819052506001826140d29190615c84565b91505b80806140e090615e2c565b915050613de5565b508194505050505090565b806001546141019190615c84565b60018190555050565b600160086000838152602001908152602001600020600501819055506001600860008381526020019081526020016000206006018190555050565b61414d614b88565b60086000838152602001908152602001600020604051806101a00160405290816000820154815260200160018201805461418690615dc9565b80601f01602080910402602001604051908101604052809291908181526020018280546141b290615dc9565b80156141ff5780601f106141d4576101008083540402835291602001916141ff565b820191906000526020600020905b8154815290600101906020018083116141e257829003601f168201915b5050505050815260200160028201548152602001600382015481526020016004820154815260200160058201548152602001600682015481526020016007820160009054906101000a900473ffffffffffffffffffffffffffffffffffffffff1673ffffffffffffffffffffffffffffffffffffffff1673ffffffffffffffffffffffffffffffffffffffff1681526020016008820180546142a090615dc9565b80601f01602080910402602001604051908101604052809291908181526020018280546142cc90615dc9565b80156143195780601f106142ee57610100808354040283529160200191614319565b820191906000526020600020905b8154815290600101906020018083116142fc57829003601f168201915b505050505081526020016009820160009054906101000a900473ffffffffffffffffffffffffffffffffffffffff1673ffffffffffffffffffffffffffffffffffffffff1673ffffffffffffffffffffffffffffffffffffffff168152602001600a8201805461438890615dc9565b80601f01602080910402602001604051908101604052809291908181526020018280546143b490615dc9565b80156144015780601f106143d657610100808354040283529160200191614401565b820191906000526020600020905b8154815290600101906020018083116143e457829003601f168201915b50505050508152602001600b8201805480602002602001604051908101604052809291908181526020016000905b8282101561465a578382906000526020600020906008020160405180610100016040529081600082015481526020016001820154815260200160028201548152602001600382015481526020016004820160009054906101000a900473ffffffffffffffffffffffffffffffffffffffff1673ffffffffffffffffffffffffffffffffffffffff1673ffffffffffffffffffffffffffffffffffffffff1681526020016005820180546144e190615dc9565b80601f016020809104026020016040519081016040528092919081815260200182805461450d90615dc9565b801561455a5780601f1061452f5761010080835404028352916020019161455a565b820191906000526020600020905b81548152906001019060200180831161453d57829003601f168201915b505050505081526020016006820160009054906101000a900473ffffffffffffffffffffffffffffffffffffffff1673ffffffffffffffffffffffffffffffffffffffff1673ffffffffffffffffffffffffffffffffffffffff1681526020016007820180546145c990615dc9565b80601f01602080910402602001604051908101604052809291908181526020018280546145f590615dc9565b80156146425780601f1061461757610100808354040283529160200191614642565b820191906000526020600020905b81548152906001019060200180831161462557829003601f168201915b5050505050815250508152602001906001019061442f565b505050508152602001600c8201805480602002602001604051908101604052809291908181526020016000905b8282101561493a578382906000526020600020906008020160405180610100016040529081600082015481526020016001820180546146c590615dc9565b80601f01602080910402602001604051908101604052809291908181526020018280546146f190615dc9565b801561473e5780601f106147135761010080835404028352916020019161473e565b820191906000526020600020905b81548152906001019060200180831161472157829003601f168201915b505050505081526020016002820160009054906101000a900473ffffffffffffffffffffffffffffffffffffffff1673ffffffffffffffffffffffffffffffffffffffff1673ffffffffffffffffffffffffffffffffffffffff1681526020016003820180546147ad90615dc9565b80601f01602080910402602001604051908101604052809291908181526020018280546147d990615dc9565b80156148265780601f106147fb57610100808354040283529160200191614826565b820191906000526020600020905b81548152906001019060200180831161480957829003601f168201915b5050505050815260200160048201548152602001600582015481526020016006820160009054906101000a900473ffffffffffffffffffffffffffffffffffffffff1673ffffffffffffffffffffffffffffffffffffffff1673ffffffffffffffffffffffffffffffffffffffff1681526020016007820180546148a990615dc9565b80601f01602080910402602001604051908101604052809291908181526020018280546148d590615dc9565b80156149225780601f106148f757610100808354040283529160200191614922565b820191906000526020600020905b81548152906001019060200180831161490557829003601f168201915b50505050508152505081526020019060010190614687565b50505050815250509050919050565b60008060009054906101000a900473ffffffffffffffffffffffffffffffffffffffff1673ffffffffffffffffffffffffffffffffffffffff163373ffffffffffffffffffffffffffffffffffffffff1614156149a957600190506149ae565b600090505b90565b600660405180608001604052803373ffffffffffffffffffffffffffffffffffffffff1681526020018581526020018473ffffffffffffffffffffffffffffffffffffffff16815260200183815250908060018154018082558091505060019003906000526020600020906004020160009091909190915060008201518160000160006101000a81548173ffffffffffffffffffffffffffffffffffffffff021916908373ffffffffffffffffffffffffffffffffffffffff1602179055506020820151816001019080519060200190614a8c929190614b02565b5060408201518160020160006101000a81548173ffffffffffffffffffffffffffffffffffffffff021916908373ffffffffffffffffffffffffffffffffffffffff1602179055506060820151816003019080519060200190614af0929190614b02565b505050505050565b6000600154905090565b828054614b0e90615dc9565b90600052602060002090601f016020900481019282614b305760008555614b77565b82601f10614b4957805160ff1916838001178555614b77565b82800160010185558215614b77579182015b82811115614b76578251825591602001919060010190614b5b565b5b509050614b849190614d5c565b5090565b604051806101a0016040528060008152602001606081526020016000815260200160008152602001600081526020016000815260200160008152602001600073ffffffffffffffffffffffffffffffffffffffff16815260200160608152602001600073ffffffffffffffffffffffffffffffffffffffff1681526020016060815260200160608152602001606081525090565b6040518060c00160405280600073ffffffffffffffffffffffffffffffffffffffff16815260200160608152602001600073ffffffffffffffffffffffffffffffffffffffff1681526020016060815260200160008152602001606081525090565b828054828255906000526020600020908101928215614cba579160200282015b82811115614cb9578251825591602001919060010190614c9e565b5b509050614cc79190614d5c565b5090565b6040518060800160405280600073ffffffffffffffffffffffffffffffffffffffff1681526020016060815260200160008152602001606081525090565b6040518060e00160405280600081526020016000815260200160608152602001600073ffffffffffffffffffffffffffffffffffffffff1681526020016060815260200160008152602001600081525090565b5b80821115614d75576000816000905550600101614d5d565b5090565b6000614d8c614d8784615b22565b615afd565b905082815260208101848484011115614da457600080fd5b614daf848285615d87565b509392505050565b600081359050614dc681615f42565b92915050565b600082601f830112614ddd57600080fd5b8135614ded848260208601614d79565b91505092915050565b600081359050614e0581615f59565b92915050565b60008060408385031215614e1e57600080fd5b6000614e2c85828601614db7565b925050602083013567ffffffffffffffff811115614e4957600080fd5b614e5585828601614dcc565b9150509250929050565b600060208284031215614e7157600080fd5b600082013567ffffffffffffffff811115614e8b57600080fd5b614e9784828501614dcc565b91505092915050565b600080600060608486031215614eb557600080fd5b600084013567ffffffffffffffff811115614ecf57600080fd5b614edb86828701614dcc565b9350506020614eec86828701614db7565b925050604084013567ffffffffffffffff811115614f0957600080fd5b614f1586828701614dcc565b9150509250925092565b60008060008060808587031215614f3557600080fd5b600085013567ffffffffffffffff811115614f4f57600080fd5b614f5b87828801614dcc565b945050602085013567ffffffffffffffff811115614f7857600080fd5b614f8487828801614dcc565b935050604085013567ffffffffffffffff811115614fa157600080fd5b614fad87828801614dcc565b9250506060614fbe87828801614df6565b91505092959194509250565b600080600080600060a08688031215614fe257600080fd5b600086013567ffffffffffffffff811115614ffc57600080fd5b61500888828901614dcc565b955050602061501988828901614df6565b945050604061502a88828901614df6565b935050606086013567ffffffffffffffff81111561504757600080fd5b61505388828901614dcc565b925050608086013567ffffffffffffffff81111561507057600080fd5b61507c88828901614dcc565b9150509295509295909350565b60006020828403121561509b57600080fd5b60006150a984828501614df6565b91505092915050565b600080600080608085870312156150c857600080fd5b60006150d687828801614df6565b94505060206150e787828801614df6565b935050604085013567ffffffffffffffff81111561510457600080fd5b61511087828801614dcc565b925050606085013567ffffffffffffffff81111561512d57600080fd5b61513987828801614dcc565b91505092959194509250565b600061515183836154b8565b905092915050565b6000615165838361555b565b905092915050565b60006151798383615612565b905092915050565b600061518d838361587c565b905092915050565b61519e81615d3f565b82525050565b6151ad81615d3f565b82525050565b60006151be82615ba8565b6151c88185615c13565b9350836020820285016151da85615b53565b8060005b8581101561521657848403895281516151f78582615145565b945061520283615bdf565b925060208a019950506001810190506151de565b50829750879550505050505092915050565b600061523382615bb3565b61523d8185615c24565b93508360208202850161524f85615b63565b8060005b8581101561528b578484038952815161526c8582615159565b945061527783615bec565b925060208a01995050600181019050615253565b50829750879550505050505092915050565b60006152a882615bbe565b6152b28185615c35565b9350836020820285016152c485615b73565b8060005b8581101561530057848403895281516152e1858261516d565b94506152ec83615bf9565b925060208a019950506001810190506152c8565b50829750879550505050505092915050565b600061531d82615bc9565b6153278185615c46565b93508360208202850161533985615b83565b8060005b8581101561537557848403895281516153568582615181565b945061536183615c06565b925060208a0199505060018101905061533d565b50829750879550505050505092915050565b61539081615d51565b82525050565b60006153a182615bd4565b6153ab8185615c57565b93506153bb818560208601615d96565b6153c481615f31565b840191505092915050565b60006153da82615bd4565b6153e48185615c68565b93506153f4818560208601615d96565b6153fd81615f31565b840191505092915050565b600061541382615bd4565b61541d8185615c79565b935061542d818560208601615d96565b80840191505092915050565b6000815461544681615dc9565b6154508186615c79565b9450600182166000811461546b576001811461547c576154af565b60ff198316865281860193506154af565b61548585615b93565b60005b838110156154a757815481890152600182019150602081019050615488565b838801955050505b50505092915050565b600060e0830160008301516154d0600086018261593a565b5060208301516154e3602086018261593a565b50604083015184820360408601526154fb8282615396565b91505060608301516155106060860182615195565b50608083015184820360808601526155288282615396565b91505060a083015161553d60a086018261593a565b5060c083015161555060c086018261593a565b508091505092915050565b600061010083016000830151615574600086018261593a565b506020830151615587602086018261593a565b50604083015161559a604086018261593a565b5060608301516155ad606086018261593a565b5060808301516155c06080860182615195565b5060a083015184820360a08601526155d88282615396565b91505060c08301516155ed60c0860182615195565b5060e083015184820360e08601526156058282615396565b9150508091505092915050565b60006101a08301600083015161562b600086018261593a565b50602083015184820360208601526156438282615396565b9150506040830151615658604086018261593a565b50606083015161566b606086018261593a565b50608083015161567e608086018261593a565b5060a083015161569160a086018261593a565b5060c08301516156a460c086018261593a565b5060e08301516156b760e0860182615195565b506101008301518482036101008601526156d18282615396565b9150506101208301516156e8610120860182615195565b506101408301518482036101408601526157028282615396565b91505061016083015184820361016086015261571e8282615228565b91505061018083015184820361018086015261573a8282615312565b9150508091505092915050565b60006101a083016000830151615760600086018261593a565b50602083015184820360208601526157788282615396565b915050604083015161578d604086018261593a565b5060608301516157a0606086018261593a565b5060808301516157b3608086018261593a565b5060a08301516157c660a086018261593a565b5060c08301516157d960c086018261593a565b5060e08301516157ec60e0860182615195565b506101008301518482036101008601526158068282615396565b91505061012083015161581d610120860182615195565b506101408301518482036101408601526158378282615396565b9150506101608301518482036101608601526158538282615228565b91505061018083015184820361018086015261586f8282615312565b9150508091505092915050565b600061010083016000830151615895600086018261593a565b50602083015184820360208601526158ad8282615396565b91505060408301516158c26040860182615195565b50606083015184820360608601526158da8282615396565b91505060808301516158ef608086018261593a565b5060a083015161590260a086018261593a565b5060c083015161591560c0860182615195565b5060e083015184820360e086015261592d8282615396565b9150508091505092915050565b61594381615d7d565b82525050565b61595281615d7d565b82525050565b60006159648284615408565b915081905092915050565b600061597b8284615439565b915081905092915050565b600060208201905061599b60008301846151a4565b92915050565b600060208201905081810360008301526159bb81846151b3565b905092915050565b600060208201905081810360008301526159dd818461529d565b905092915050565b60006020820190506159fa6000830184615387565b92915050565b60006020820190508181036000830152615a1a8184615747565b905092915050565b6000602082019050615a376000830184615949565b92915050565b600061016082019050615a53600083018e615949565b8181036020830152615a65818d6153cf565b9050615a74604083018c615949565b615a81606083018b615949565b615a8e608083018a615949565b615a9b60a0830189615949565b615aa860c0830188615949565b615ab560e08301876151a4565b818103610100830152615ac881866153cf565b9050615ad86101208301856151a4565b818103610140830152615aeb81846153cf565b90509c9b505050505050505050505050565b6000615b07615b18565b9050615b138282615dfb565b919050565b6000604051905090565b600067ffffffffffffffff821115615b3d57615b3c615f02565b5b615b4682615f31565b9050602081019050919050565b6000819050602082019050919050565b6000819050602082019050919050565b6000819050602082019050919050565b6000819050602082019050919050565b60008190508160005260206000209050919050565b600081519050919050565b600081519050919050565b600081519050919050565b600081519050919050565b600081519050919050565b6000602082019050919050565b6000602082019050919050565b6000602082019050919050565b6000602082019050919050565b600082825260208201905092915050565b600082825260208201905092915050565b600082825260208201905092915050565b600082825260208201905092915050565b600082825260208201905092915050565b600082825260208201905092915050565b600081905092915050565b6000615c8f82615d7d565b9150615c9a83615d7d565b9250827fffffffffffffffffffffffffffffffffffffffffffffffffffffffffffffffff03821115615ccf57615cce615e75565b5b828201905092915050565b6000615ce582615d7d565b9150615cf083615d7d565b925082615d0057615cff615ea4565b5b828204905092915050565b6000615d1682615d7d565b9150615d2183615d7d565b925082821015615d3457615d33615e75565b5b828203905092915050565b6000615d4a82615d5d565b9050919050565b60008115159050919050565b600073ffffffffffffffffffffffffffffffffffffffff82169050919050565b6000819050919050565b82818337600083830152505050565b60005b83811015615db4578082015181840152602081019050615d99565b83811115615dc3576000848401525b50505050565b60006002820490506001821680615de157607f821691505b60208210811415615df557615df4615ed3565b5b50919050565b615e0482615f31565b810181811067ffffffffffffffff82111715615e2357615e22615f02565b5b80604052505050565b6000615e3782615d7d565b91507fffffffffffffffffffffffffffffffffffffffffffffffffffffffffffffffff821415615e6a57615e69615e75565b5b600182019050919050565b7f4e487b7100000000000000000000000000000000000000000000000000000000600052601160045260246000fd5b7f4e487b7100000000000000000000000000000000000000000000000000000000600052601260045260246000fd5b7f4e487b7100000000000000000000000000000000000000000000000000000000600052602260045260246000fd5b7f4e487b7100000000000000000000000000000000000000000000000000000000600052604160045260246000fd5b6000601f19601f8301169050919050565b615f4b81615d3f565b8114615f5657600080fd5b50565b615f6281615d7d565b8114615f6d57600080fd5b5056fea2646970667358221220c4baff9827db411a9e24ed24e1d325dce11c10a5c98be82be82f6a4dae48f3e964736f6c63430008010033",
  "linkReferences": {},
  "deployedLinkReferences": {}
}